{
  "contractName": "Charity",
  "abi": [
    {
      "inputs": [],
      "stateMutability": "nonpayable",
      "type": "constructor"
    },
    {
      "inputs": [
        {
          "internalType": "address",
          "name": "",
          "type": "address"
        }
      ],
      "name": "donatedAmount",
      "outputs": [
        {
          "internalType": "uint256",
          "name": "",
          "type": "uint256"
        }
      ],
      "stateMutability": "view",
      "type": "function",
      "constant": true
    },
    {
      "inputs": [
        {
          "internalType": "address",
          "name": "",
          "type": "address"
        }
      ],
      "name": "donorVote",
      "outputs": [
        {
          "internalType": "address",
          "name": "",
          "type": "address"
        }
      ],
      "stateMutability": "view",
      "type": "function",
      "constant": true
    },
    {
      "inputs": [
        {
          "internalType": "uint256",
          "name": "",
          "type": "uint256"
        }
      ],
      "name": "donors",
      "outputs": [
        {
          "internalType": "address",
          "name": "",
          "type": "address"
        }
      ],
      "stateMutability": "view",
      "type": "function",
      "constant": true
    },
    {
      "inputs": [],
      "name": "lastVoteEndTime",
      "outputs": [
        {
          "internalType": "uint256",
          "name": "",
          "type": "uint256"
        }
      ],
      "stateMutability": "view",
      "type": "function",
      "constant": true
    },
    {
      "inputs": [
        {
          "internalType": "uint256",
          "name": "",
          "type": "uint256"
        }
      ],
      "name": "requesters",
      "outputs": [
        {
          "internalType": "address",
          "name": "",
          "type": "address"
        }
      ],
      "stateMutability": "view",
      "type": "function",
      "constant": true
    },
    {
      "inputs": [
        {
          "internalType": "address",
          "name": "",
          "type": "address"
        },
        {
          "internalType": "uint256",
          "name": "",
          "type": "uint256"
        }
      ],
      "name": "requestorDonors",
      "outputs": [
        {
          "internalType": "address",
          "name": "",
          "type": "address"
        }
      ],
      "stateMutability": "view",
      "type": "function",
      "constant": true
    },
    {
      "inputs": [
        {
          "internalType": "address",
          "name": "",
          "type": "address"
        }
      ],
      "name": "requests",
      "outputs": [
        {
          "internalType": "address",
          "name": "requester",
          "type": "address"
        },
        {
          "internalType": "uint256",
          "name": "amount_requested",
          "type": "uint256"
        },
        {
          "internalType": "string",
          "name": "proof",
          "type": "string"
        }
      ],
      "stateMutability": "view",
      "type": "function",
      "constant": true
    },
    {
      "inputs": [],
      "name": "donate",
      "outputs": [],
      "stateMutability": "payable",
      "type": "function",
      "payable": true
    },
    {
      "inputs": [],
      "name": "purgeStaleRequest",
      "outputs": [],
      "stateMutability": "nonpayable",
      "type": "function"
    },
    {
      "inputs": [],
      "name": "getNumberOfRequests",
      "outputs": [
        {
          "internalType": "uint256",
          "name": "",
          "type": "uint256"
        }
      ],
      "stateMutability": "view",
      "type": "function",
      "constant": true
    },
    {
      "inputs": [
        {
          "internalType": "uint256",
          "name": "requested_amount",
          "type": "uint256"
        },
        {
          "internalType": "string",
          "name": "_proof",
          "type": "string"
        }
      ],
      "name": "new_request",
      "outputs": [],
      "stateMutability": "nonpayable",
      "type": "function"
    },
    {
      "inputs": [
        {
          "internalType": "address",
          "name": "requester_addr",
          "type": "address"
        }
      ],
      "name": "voteForRequest",
      "outputs": [],
      "stateMutability": "nonpayable",
      "type": "function"
    },
    {
      "inputs": [
        {
          "internalType": "address",
          "name": "requester",
          "type": "address"
        }
      ],
      "name": "getRequestVoteCount",
      "outputs": [
        {
          "internalType": "uint256",
          "name": "",
          "type": "uint256"
        }
      ],
      "stateMutability": "view",
      "type": "function",
      "constant": true
    },
    {
      "inputs": [],
      "name": "getLastVoteEndTime",
      "outputs": [
        {
          "internalType": "uint256",
          "name": "",
          "type": "uint256"
        }
      ],
      "stateMutability": "view",
      "type": "function",
      "constant": true
    },
    {
      "inputs": [],
      "name": "getRequests",
      "outputs": [
        {
          "components": [
            {
              "internalType": "address",
              "name": "requester",
              "type": "address"
            },
            {
              "internalType": "uint256",
              "name": "amount_requested",
              "type": "uint256"
            },
            {
              "internalType": "string",
              "name": "proof",
              "type": "string"
            },
            {
              "internalType": "uint256",
              "name": "votes",
              "type": "uint256"
            }
          ],
          "internalType": "struct Charity.ReturnedRequestData[]",
          "name": "",
          "type": "tuple[]"
        }
      ],
      "stateMutability": "view",
      "type": "function",
      "constant": true
    },
    {
      "inputs": [
        {
          "internalType": "address",
          "name": "requester",
          "type": "address"
        }
      ],
      "name": "getRequestDetails",
      "outputs": [
        {
          "internalType": "uint256",
          "name": "",
          "type": "uint256"
        },
        {
          "internalType": "string",
          "name": "",
          "type": "string"
        }
      ],
      "stateMutability": "view",
      "type": "function",
      "constant": true
    },
    {
      "inputs": [],
      "name": "getWinningRequest",
      "outputs": [
        {
          "components": [
            {
              "internalType": "address",
              "name": "requester",
              "type": "address"
            },
            {
              "internalType": "uint256",
              "name": "amount_requested",
              "type": "uint256"
            },
            {
              "internalType": "string",
              "name": "proof",
              "type": "string"
            }
          ],
          "internalType": "struct Charity.Request",
          "name": "",
          "type": "tuple"
        }
      ],
      "stateMutability": "view",
      "type": "function",
      "constant": true
    },
    {
      "inputs": [],
      "name": "getWinningRequestAddress",
      "outputs": [
        {
          "internalType": "address",
          "name": "",
          "type": "address"
        }
      ],
      "stateMutability": "view",
      "type": "function",
      "constant": true
    },
    {
      "inputs": [],
      "name": "withdraw",
      "outputs": [],
      "stateMutability": "nonpayable",
      "type": "function"
    }
  ],
  "bytecode": "0x608060405234801561001057600080fd5b5042600281905550612745806100276000396000f3fe6080604052600436106101145760003560e01c806374adad1d116100a0578063c182213111610064578063c1822131146103de578063db4208fa146103f5578063e05646f314610432578063ed88c68e1461045b578063fb8763441461046557610114565b806374adad1d146102e05780637bc6a4731461031f5780638813ce121461034a5780639738849714610375578063b349885b146103a057610114565b80633f2fb8cc116100e75780633f2fb8cc146101d5578063499d928d146101fe5780634abfa1631461023b5780635e1a6c171461027857806370661719146102b557610114565b8063022f6388146101195780631c0b95581461015657806326d6cd4c146101815780633ccfd60b146101be575b600080fd5b34801561012557600080fd5b50610140600480360381019061013b9190611cce565b610490565b60405161014d91906121dd565b60405180910390f35b34801561016257600080fd5b5061016b6104a8565b60405161017891906121dd565b60405180910390f35b34801561018d57600080fd5b506101a860048036038101906101a39190611cce565b6104b2565b6040516101b591906121dd565b60405180910390f35b3480156101ca57600080fd5b506101d36104fe565b005b3480156101e157600080fd5b506101fc60048036038101906101f79190611d68565b6106df565b005b34801561020a57600080fd5b5061022560048036038101906102209190611cce565b6108d2565b6040516102329190612080565b60405180910390f35b34801561024757600080fd5b50610262600480360381019061025d9190611d3b565b610905565b60405161026f9190612080565b60405180910390f35b34801561028457600080fd5b5061029f600480360381019061029a9190611d3b565b610944565b6040516102ac9190612080565b60405180910390f35b3480156102c157600080fd5b506102ca610983565b6040516102d791906121dd565b60405180910390f35b3480156102ec57600080fd5b5061030760048036038101906103029190611cce565b610989565b6040516103169392919061209b565b60405180910390f35b34801561032b57600080fd5b50610334610a5b565b6040516103419190612080565b60405180910390f35b34801561035657600080fd5b5061035f610c23565b60405161036c91906120d9565b60405180910390f35b34801561038157600080fd5b5061038a61116d565b60405161039791906121dd565b60405180910390f35b3480156103ac57600080fd5b506103c760048036038101906103c29190611cce565b61117a565b6040516103d59291906121f8565b60405180910390f35b3480156103ea57600080fd5b506103f36112d2565b005b34801561040157600080fd5b5061041c60048036038101906104179190611cfb565b611317565b6040516104299190612080565b60405180910390f35b34801561043e57600080fd5b5061045960048036038101906104549190611cce565b611365565b005b6104636115da565b005b34801561047157600080fd5b5061047a6116cc565b60405161048791906121bb565b60405180910390f35b60016020528060005260406000206000915090505481565b6000600254905090565b6000600660008373ffffffffffffffffffffffffffffffffffffffff1673ffffffffffffffffffffffffffffffffffffffff168152602001908152602001600020805490509050919050565b6201518060025442610510919061233a565b11610550576040517f08c379a00000000000000000000000000000000000000000000000000000000081526004016105479061211b565b60405180910390fd5b600061055a610a5b565b90503373ffffffffffffffffffffffffffffffffffffffff1661057b610a5b565b73ffffffffffffffffffffffffffffffffffffffff16146105d1576040517f08c379a00000000000000000000000000000000000000000000000000000000081526004016105c89061219b565b60405180910390fd5b6000600460008373ffffffffffffffffffffffffffffffffffffffff1673ffffffffffffffffffffffffffffffffffffffff1681526020019081526020016000206001015490508047111561066c573373ffffffffffffffffffffffffffffffffffffffff166108fc829081150290604051600060405180830381858888f19350505050158015610666573d6000803e3d6000fd5b506106b4565b3373ffffffffffffffffffffffffffffffffffffffff166108fc479081150290604051600060405180830381858888f193505050501580156106b2573d6000803e3d6000fd5b505b6106bd8261181c565b6106c6826119ec565b62015180426106d591906122e4565b6002819055505050565b6000600460003373ffffffffffffffffffffffffffffffffffffffff1673ffffffffffffffffffffffffffffffffffffffff1681526020019081526020016000206001015414610764576040517f08c379a000000000000000000000000000000000000000000000000000000000815260040161075b9061217b565b60405180910390fd5b600060405180606001604052803373ffffffffffffffffffffffffffffffffffffffff16815260200184815260200183815250905080600460003373ffffffffffffffffffffffffffffffffffffffff1673ffffffffffffffffffffffffffffffffffffffff16815260200190815260200160002060008201518160000160006101000a81548173ffffffffffffffffffffffffffffffffffffffff021916908373ffffffffffffffffffffffffffffffffffffffff160217905550602082015181600101556040820151816002019080519060200190610846929190611abb565b509050506003339080600181540180825580915050600190039060005260206000200160009091909190916101000a81548173ffffffffffffffffffffffffffffffffffffffff021916908373ffffffffffffffffffffffffffffffffffffffff1602179055506201fa406002546108be91906122e4565b4211156108cd57426002819055505b505050565b60056020528060005260406000206000915054906101000a900473ffffffffffffffffffffffffffffffffffffffff1681565b6000818154811061091557600080fd5b906000526020600020016000915054906101000a900473ffffffffffffffffffffffffffffffffffffffff1681565b6003818154811061095457600080fd5b906000526020600020016000915054906101000a900473ffffffffffffffffffffffffffffffffffffffff1681565b60025481565b60046020528060005260406000206000915090508060000160009054906101000a900473ffffffffffffffffffffffffffffffffffffffff16908060010154908060020180546109d8906123ec565b80601f0160208091040260200160405190810160405280929190818152602001828054610a04906123ec565b8015610a515780601f10610a2657610100808354040283529160200191610a51565b820191906000526020600020905b815481529060010190602001808311610a3457829003601f168201915b5050505050905083565b60008060009050600080600090505b600380549050811015610be05760006006600060038481548110610a9157610a906124f6565b5b9060005260206000200160009054906101000a900473ffffffffffffffffffffffffffffffffffffffff1673ffffffffffffffffffffffffffffffffffffffff1673ffffffffffffffffffffffffffffffffffffffff168152602001908152602001600020805480602002602001604051908101604052809291908181526020018280548015610b7657602002820191906000526020600020905b8160009054906101000a900473ffffffffffffffffffffffffffffffffffffffff1673ffffffffffffffffffffffffffffffffffffffff1681526020019060010190808311610b2c575b505050505090508381511115610bcc578051935060038281548110610b9e57610b9d6124f6565b5b9060005260206000200160009054906101000a900473ffffffffffffffffffffffffffffffffffffffff1692505b508080610bd89061244f565b915050610a6a565b50600073ffffffffffffffffffffffffffffffffffffffff168173ffffffffffffffffffffffffffffffffffffffff161415610c1b57600080fd5b809250505090565b60606000610c2f61116d565b905060008167ffffffffffffffff811115610c4d57610c4c612525565b5b604051908082528060200260200182016040528015610c8657816020015b610c73611b41565b815260200190600190039081610c6b5790505b5090506000805b83811015610f72576000805b8451811015610db0576004600060038581548110610cba57610cb96124f6565b5b9060005260206000200160009054906101000a900473ffffffffffffffffffffffffffffffffffffffff1673ffffffffffffffffffffffffffffffffffffffff1673ffffffffffffffffffffffffffffffffffffffff16815260200190815260200160002060000160009054906101000a900473ffffffffffffffffffffffffffffffffffffffff1673ffffffffffffffffffffffffffffffffffffffff16858281518110610d6c57610d6b6124f6565b5b60200260200101516000015173ffffffffffffffffffffffffffffffffffffffff161415610d9d5760019150610db0565b8080610da89061244f565b915050610c99565b5080610f5e576004600060038481548110610dce57610dcd6124f6565b5b9060005260206000200160009054906101000a900473ffffffffffffffffffffffffffffffffffffffff1673ffffffffffffffffffffffffffffffffffffffff1673ffffffffffffffffffffffffffffffffffffffff1681526020019081526020016000206040518060600160405290816000820160009054906101000a900473ffffffffffffffffffffffffffffffffffffffff1673ffffffffffffffffffffffffffffffffffffffff1673ffffffffffffffffffffffffffffffffffffffff16815260200160018201548152602001600282018054610eae906123ec565b80601f0160208091040260200160405190810160405280929190818152602001828054610eda906123ec565b8015610f275780601f10610efc57610100808354040283529160200191610f27565b820191906000526020600020905b815481529060010190602001808311610f0a57829003601f168201915b505050505081525050848481518110610f4357610f426124f6565b5b6020026020010181905250600183610f5b91906122e4565b92505b508080610f6a9061244f565b915050610c8d565b506000825167ffffffffffffffff811115610f9057610f8f612525565b5b604051908082528060200260200182016040528015610fc957816020015b610fb6611b78565b815260200190600190039081610fae5790505b50905060005b835181101561116257838181518110610feb57610fea6124f6565b5b60200260200101516000015182828151811061100a576110096124f6565b5b60200260200101516000019073ffffffffffffffffffffffffffffffffffffffff16908173ffffffffffffffffffffffffffffffffffffffff168152505083818151811061105b5761105a6124f6565b5b60200260200101516020015182828151811061107a576110796124f6565b5b6020026020010151602001818152505083818151811061109d5761109c6124f6565b5b6020026020010151604001518282815181106110bc576110bb6124f6565b5b602002602001015160400181905250600660008583815181106110e2576110e16124f6565b5b60200260200101516000015173ffffffffffffffffffffffffffffffffffffffff1673ffffffffffffffffffffffffffffffffffffffff1681526020019081526020016000208054905082828151811061113f5761113e6124f6565b5b60200260200101516060018181525050808061115a9061244f565b915050610fcf565b508094505050505090565b6000600380549050905090565b600060606000600460008573ffffffffffffffffffffffffffffffffffffffff1673ffffffffffffffffffffffffffffffffffffffff1681526020019081526020016000206040518060600160405290816000820160009054906101000a900473ffffffffffffffffffffffffffffffffffffffff1673ffffffffffffffffffffffffffffffffffffffff1673ffffffffffffffffffffffffffffffffffffffff1681526020016001820154815260200160028201805461123a906123ec565b80601f0160208091040260200160405190810160405280929190818152602001828054611266906123ec565b80156112b35780601f10611288576101008083540402835291602001916112b3565b820191906000526020600020905b81548152906001019060200180831161129657829003601f168201915b5050505050815250509050806020015181604001519250925050915091565b6201fa40600254426112e4919061233a565b116112ee57600080fd5b6112fe6112f9610a5b565b61181c565b61130e611309610a5b565b6119ec565b42600281905550565b6006602052816000526040600020818154811061133357600080fd5b906000526020600020016000915091509054906101000a900473ffffffffffffffffffffffffffffffffffffffff1681565b6000600460008373ffffffffffffffffffffffffffffffffffffffff1673ffffffffffffffffffffffffffffffffffffffff1681526020019081526020016000206001015414156113eb576040517f08c379a00000000000000000000000000000000000000000000000000000000081526004016113e2906120fb565b60405180910390fd5b600073ffffffffffffffffffffffffffffffffffffffff16600560003373ffffffffffffffffffffffffffffffffffffffff1673ffffffffffffffffffffffffffffffffffffffff16815260200190815260200160002060009054906101000a900473ffffffffffffffffffffffffffffffffffffffff1673ffffffffffffffffffffffffffffffffffffffff16146114b9576040517f08c379a00000000000000000000000000000000000000000000000000000000081526004016114b09061215b565b60405180910390fd5b80600560003373ffffffffffffffffffffffffffffffffffffffff1673ffffffffffffffffffffffffffffffffffffffff16815260200190815260200160002060006101000a81548173ffffffffffffffffffffffffffffffffffffffff021916908373ffffffffffffffffffffffffffffffffffffffff160217905550600660008273ffffffffffffffffffffffffffffffffffffffff1673ffffffffffffffffffffffffffffffffffffffff168152602001908152602001600020339080600181540180825580915050600190039060005260206000200160009091909190916101000a81548173ffffffffffffffffffffffffffffffffffffffff021916908373ffffffffffffffffffffffffffffffffffffffff16021790555050565b662386f26fc100003411611623576040517f08c379a000000000000000000000000000000000000000000000000000000000815260040161161a9061213b565b60405180910390fd5b6000339080600181540180825580915050600190039060005260206000200160009091909190916101000a81548173ffffffffffffffffffffffffffffffffffffffff021916908373ffffffffffffffffffffffffffffffffffffffff16021790555034600160003373ffffffffffffffffffffffffffffffffffffffff1673ffffffffffffffffffffffffffffffffffffffff16815260200190815260200160002081905550565b6116d4611b41565b600460006116e0610a5b565b73ffffffffffffffffffffffffffffffffffffffff1673ffffffffffffffffffffffffffffffffffffffff1681526020019081526020016000206040518060600160405290816000820160009054906101000a900473ffffffffffffffffffffffffffffffffffffffff1673ffffffffffffffffffffffffffffffffffffffff1673ffffffffffffffffffffffffffffffffffffffff16815260200160018201548152602001600282018054611795906123ec565b80601f01602080910402602001604051908101604052809291908181526020018280546117c1906123ec565b801561180e5780601f106117e35761010080835404028352916020019161180e565b820191906000526020600020905b8154815290600101906020018083116117f157829003601f168201915b505050505081525050905090565b6000600660008373ffffffffffffffffffffffffffffffffffffffff1673ffffffffffffffffffffffffffffffffffffffff1681526020019081526020016000208054806020026020016040519081016040528092919081815260200182805480156118dd57602002820191906000526020600020905b8160009054906101000a900473ffffffffffffffffffffffffffffffffffffffff1673ffffffffffffffffffffffffffffffffffffffff1681526020019060010190808311611893575b505050505090506000815111156119e85760005b81518110156119e65760016000838381518110611911576119106124f6565b5b602002602001015173ffffffffffffffffffffffffffffffffffffffff1673ffffffffffffffffffffffffffffffffffffffff168152602001908152602001600020600090556005600083838151811061196e5761196d6124f6565b5b602002602001015173ffffffffffffffffffffffffffffffffffffffff1673ffffffffffffffffffffffffffffffffffffffff16815260200190815260200160002060006101000a81549073ffffffffffffffffffffffffffffffffffffffff021916905580806119de9061244f565b9150506118f1565b505b5050565b600460008273ffffffffffffffffffffffffffffffffffffffff1673ffffffffffffffffffffffffffffffffffffffff168152602001908152602001600020600080820160006101000a81549073ffffffffffffffffffffffffffffffffffffffff02191690556001820160009055600282016000611a6b9190611bb6565b5050600660008273ffffffffffffffffffffffffffffffffffffffff1673ffffffffffffffffffffffffffffffffffffffff1681526020019081526020016000206000611ab89190611bf6565b50565b828054611ac7906123ec565b90600052602060002090601f016020900481019282611ae95760008555611b30565b82601f10611b0257805160ff1916838001178555611b30565b82800160010185558215611b30579182015b82811115611b2f578251825591602001919060010190611b14565b5b509050611b3d9190611c17565b5090565b6040518060600160405280600073ffffffffffffffffffffffffffffffffffffffff16815260200160008152602001606081525090565b6040518060800160405280600073ffffffffffffffffffffffffffffffffffffffff1681526020016000815260200160608152602001600081525090565b508054611bc2906123ec565b6000825580601f10611bd45750611bf3565b601f016020900490600052602060002090810190611bf29190611c17565b5b50565b5080546000825590600052602060002090810190611c149190611c17565b50565b5b80821115611c30576000816000905550600101611c18565b5090565b6000611c47611c428461224d565b612228565b905082815260208101848484011115611c6357611c62612559565b5b611c6e8482856123aa565b509392505050565b600081359050611c85816126e1565b92915050565b600082601f830112611ca057611c9f612554565b5b8135611cb0848260208601611c34565b91505092915050565b600081359050611cc8816126f8565b92915050565b600060208284031215611ce457611ce3612563565b5b6000611cf284828501611c76565b91505092915050565b60008060408385031215611d1257611d11612563565b5b6000611d2085828601611c76565b9250506020611d3185828601611cb9565b9150509250929050565b600060208284031215611d5157611d50612563565b5b6000611d5f84828501611cb9565b91505092915050565b60008060408385031215611d7f57611d7e612563565b5b6000611d8d85828601611cb9565b925050602083013567ffffffffffffffff811115611dae57611dad61255e565b5b611dba85828601611c8b565b9150509250929050565b6000611dd08383611fff565b905092915050565b611de18161236e565b82525050565b611df08161236e565b82525050565b6000611e018261228e565b611e0b81856122b1565b935083602082028501611e1d8561227e565b8060005b85811015611e595784840389528151611e3a8582611dc4565b9450611e45836122a4565b925060208a01995050600181019050611e21565b50829750879550505050505092915050565b6000611e7682612299565b611e8081856122c2565b9350611e908185602086016123b9565b611e9981612568565b840191505092915050565b6000611eaf82612299565b611eb981856122d3565b9350611ec98185602086016123b9565b611ed281612568565b840191505092915050565b6000611eea6016836122d3565b9150611ef582612579565b602082019050919050565b6000611f0d601c836122d3565b9150611f18826125a2565b602082019050919050565b6000611f306026836122d3565b9150611f3b826125cb565b604082019050919050565b6000611f536016836122d3565b9150611f5e8261261a565b602082019050919050565b6000611f766025836122d3565b9150611f8182612643565b604082019050919050565b6000611f99602c836122d3565b9150611fa482612692565b604082019050919050565b6000606083016000830151611fc76000860182611dd8565b506020830151611fda6020860182612062565b5060408301518482036040860152611ff28282611e6b565b9150508091505092915050565b60006080830160008301516120176000860182611dd8565b50602083015161202a6020860182612062565b50604083015184820360408601526120428282611e6b565b91505060608301516120576060860182612062565b508091505092915050565b61206b816123a0565b82525050565b61207a816123a0565b82525050565b60006020820190506120956000830184611de7565b92915050565b60006060820190506120b06000830186611de7565b6120bd6020830185612071565b81810360408301526120cf8184611ea4565b9050949350505050565b600060208201905081810360008301526120f38184611df6565b905092915050565b6000602082019050818103600083015261211481611edd565b9050919050565b6000602082019050818103600083015261213481611f00565b9050919050565b6000602082019050818103600083015261215481611f23565b9050919050565b6000602082019050818103600083015261217481611f46565b9050919050565b6000602082019050818103600083015261219481611f69565b9050919050565b600060208201905081810360008301526121b481611f8c565b9050919050565b600060208201905081810360008301526121d58184611faf565b905092915050565b60006020820190506121f26000830184612071565b92915050565b600060408201905061220d6000830185612071565b818103602083015261221f8184611ea4565b90509392505050565b6000612232612243565b905061223e828261241e565b919050565b6000604051905090565b600067ffffffffffffffff82111561226857612267612525565b5b61227182612568565b9050602081019050919050565b6000819050602082019050919050565b600081519050919050565b600081519050919050565b6000602082019050919050565b600082825260208201905092915050565b600082825260208201905092915050565b600082825260208201905092915050565b60006122ef826123a0565b91506122fa836123a0565b9250827fffffffffffffffffffffffffffffffffffffffffffffffffffffffffffffffff0382111561232f5761232e612498565b5b828201905092915050565b6000612345826123a0565b9150612350836123a0565b92508282101561236357612362612498565b5b828203905092915050565b600061237982612380565b9050919050565b600073ffffffffffffffffffffffffffffffffffffffff82169050919050565b6000819050919050565b82818337600083830152505050565b60005b838110156123d75780820151818401526020810190506123bc565b838111156123e6576000848401525b50505050565b6000600282049050600182168061240457607f821691505b60208210811415612418576124176124c7565b5b50919050565b61242782612568565b810181811067ffffffffffffffff8211171561244657612445612525565b5b80604052505050565b600061245a826123a0565b91507fffffffffffffffffffffffffffffffffffffffffffffffffffffffffffffffff82141561248d5761248c612498565b5b600182019050919050565b7f4e487b7100000000000000000000000000000000000000000000000000000000600052601160045260246000fd5b7f4e487b7100000000000000000000000000000000000000000000000000000000600052602260045260246000fd5b7f4e487b7100000000000000000000000000000000000000000000000000000000600052603260045260246000fd5b7f4e487b7100000000000000000000000000000000000000000000000000000000600052604160045260246000fd5b600080fd5b600080fd5b600080fd5b600080fd5b6000601f19601f8301169050919050565b7f7265717565737420646f6573206e6f7420657869737400000000000000000000600082015250565b7f74686520726f756e6420686173206e6f7420656e646564207965742100000000600082015250565b7f796f75206861766520746f20646f6e617465206d6f7265207468616e20302e3060008201527f3120455448210000000000000000000000000000000000000000000000000000602082015250565b7f796f75206861766520616c726561647920766f74656400000000000000000000600082015250565b7f596f7520616c726561647920686176652061207375626d69747465642072657160008201527f7565737421000000000000000000000000000000000000000000000000000000602082015250565b7f596f7520646f206e6f74206861766520746865206d6f737420766f746573207460008201527f68697320726f756e64203a280000000000000000000000000000000000000000602082015250565b6126ea8161236e565b81146126f557600080fd5b50565b612701816123a0565b811461270c57600080fd5b5056fea26469706673582212206e6c46f83bec4f89cb1c00f1812f5c67686751e66fbf09ea2c4e16d3a86b4ec264736f6c63430008070033",
  "immutableReferences": {},
  "source": "// SPDX-License-Identifier: MIT\r\npragma solidity 0.8.7;\r\n\r\ncontract Charity {\r\n    struct Request {\r\n        address requester;\r\n        uint256 amount_requested;\r\n        string proof;\r\n    }\r\n\r\n    struct ReturnedRequestData {\r\n        address requester;\r\n        uint256 amount_requested;\r\n        string proof;\r\n        uint256 votes;\r\n    }\r\n\r\n    address[] public donors; // entire history of donators\r\n    mapping(address => uint256) public donatedAmount; // donor to donated amount mapping\r\n    uint256 public lastVoteEndTime;\r\n    address[] public requesters; // entire history of requestors\r\n    mapping(address => Request) public requests; // requestor to request mapping\r\n    mapping(address => address) public donorVote; // donor to request mapping\r\n    mapping(address => address[]) public requestorDonors; // requestor to donors mapping\r\n\r\n    constructor() {\r\n        lastVoteEndTime = block.timestamp;\r\n    }\r\n\r\n    function donate() external payable {\r\n        require(\r\n            msg.value > 0.01 ether,\r\n            \"you have to donate more than 0.01 ETH!\"\r\n        );\r\n        donors.push(msg.sender);\r\n        donatedAmount[msg.sender] = msg.value;\r\n    }\r\n\r\n    function purgeStaleRequest() public {\r\n        require(block.timestamp - lastVoteEndTime > 36 hours);\r\n        purgeDonors(getWinningRequestAddress());\r\n        purgeRequest(getWinningRequestAddress());\r\n        lastVoteEndTime = block.timestamp;\r\n    }\r\n\r\n    function getNumberOfRequests() public view returns (uint256) {\r\n        return requesters.length;\r\n    }\r\n\r\n    function purgeRequest(address requester) private {\r\n        delete requests[requester];\r\n        delete requestorDonors[requester];\r\n    }\r\n\r\n    function purgeDonors(address requester) private {\r\n        address[] memory currentDonors = requestorDonors[requester];\r\n        if (currentDonors.length > 0) {\r\n            for (uint256 i = 0; i < currentDonors.length; i++) {\r\n                delete donatedAmount[currentDonors[i]];\r\n                delete donorVote[currentDonors[i]];\r\n            }\r\n        }\r\n        // delete requestorDonors[requester];\r\n    }\r\n\r\n    function new_request(uint256 requested_amount, string memory _proof)\r\n        external\r\n    {\r\n        require(\r\n            requests[msg.sender].amount_requested == 0,\r\n            \"You already have a submitted request!\"\r\n        ); // the person should not have put up a request before\r\n        Request memory request = Request({\r\n            requester: msg.sender,\r\n            amount_requested: requested_amount,\r\n            proof: _proof\r\n        });\r\n        requests[msg.sender] = request;\r\n        requesters.push(msg.sender);\r\n        // if (!requestMapping[msg.sender]) {\r\n        //     requestMapping[msg.sender] = request;\r\n        //     requesters.push(msg.sender);\r\n        // }\r\n        if(block.timestamp > lastVoteEndTime + 36 hours) {\r\n            lastVoteEndTime = block.timestamp;\r\n        }\r\n    }\r\n\r\n    function voteForRequest(address requester_addr)\r\n        external\r\n    {\r\n        require(\r\n            requests[requester_addr].amount_requested != 0,\r\n            \"request does not exist\"\r\n        ); // ensure that request for the corresponding requestor exists\r\n        require(donorVote[msg.sender] == address(0), \"you have already voted\"); // check that donor has not voted for anyone yet\r\n        donorVote[msg.sender] = requester_addr; // add voting for donor\r\n        requestorDonors[requester_addr].push(msg.sender); // add donor to the requestors map\r\n    }\r\n\r\n    function getRequestVoteCount(address requester)\r\n        public\r\n        view\r\n        returns (uint256)\r\n    {\r\n        return requestorDonors[requester].length;\r\n    }\r\n\r\n    function getLastVoteEndTime() public view returns (uint256) {\r\n        return lastVoteEndTime;\r\n    }\r\n\r\n    // Todo remove duplicate requestors fom the map i.e keep track of repeated reqs and dont show. Had to be unique\r\n    function getRequests() public view returns (ReturnedRequestData[] memory) {\r\n        uint256 n = getNumberOfRequests();\r\n        Request[] memory reqs = new Request[](n);\r\n        uint256 x = 0;\r\n        for (uint256 i = 0; i < n; i++) {\r\n            bool isFound = false;\r\n            for (uint256 j = 0; j < reqs.length; j++) {\r\n                if (reqs[j].requester == requests[requesters[i]].requester) {\r\n                    isFound = true;\r\n                    break;\r\n                }\r\n            }\r\n            if (!isFound) {\r\n                reqs[x] = requests[requesters[i]];\r\n                x += 1;\r\n            }\r\n        }\r\n\r\n        ReturnedRequestData[] memory ret = new ReturnedRequestData[](\r\n            reqs.length\r\n        );\r\n        for (uint256 i = 0; i < reqs.length; i++) {\r\n            ret[i].requester = reqs[i].requester;\r\n            ret[i].amount_requested = reqs[i].amount_requested;\r\n            ret[i].proof = reqs[i].proof;\r\n            ret[i].votes = requestorDonors[reqs[i].requester].length;\r\n        }\r\n\r\n        return ret;\r\n    }\r\n\r\n    function getRequestDetails(address requester)\r\n        public\r\n        view\r\n        returns (uint256, string memory)\r\n    {\r\n        Request memory request = requests[requester];\r\n        return (request.amount_requested, request.proof);\r\n    }\r\n\r\n    function getWinningRequest() public view returns (Request memory) {\r\n        return requests[getWinningRequestAddress()];\r\n    }\r\n\r\n    function getWinningRequestAddress() public view returns (address) {\r\n        uint256 highestVotes = 0;\r\n        address winningRequestAddr;\r\n        for (uint256 i = 0; i < requesters.length; i++) {\r\n            address[] memory requestDonors = requestorDonors[requesters[i]];\r\n            if (requestDonors.length > highestVotes) {\r\n                highestVotes = requestDonors.length;\r\n                winningRequestAddr = requesters[i];\r\n            }\r\n        }\r\n        require(winningRequestAddr != address(0));\r\n        return winningRequestAddr;\r\n    }\r\n\r\n    function withdraw() external {\r\n        require(\r\n            block.timestamp - lastVoteEndTime > 24 hours,\r\n            \"the round has not ended yet!\"\r\n        );\r\n        address winningAddress = getWinningRequestAddress();\r\n        require(\r\n            getWinningRequestAddress() == msg.sender,\r\n            \"You do not have the most votes this round :(\"\r\n        );\r\n        uint256 requestedAmount = requests[winningAddress].amount_requested;\r\n        if (address(this).balance > requestedAmount) {\r\n            payable(msg.sender).transfer(requestedAmount);\r\n        } else {\r\n            payable(msg.sender).transfer(address(this).balance);\r\n        }\r\n        purgeDonors(winningAddress);\r\n        purgeRequest(winningAddress);\r\n        lastVoteEndTime = block.timestamp + 24 hours;\r\n    }\r\n}\r\n",
  "sourcePath": "g:/EE4032/contracts/Charity.sol",
  "compiler": {
    "name": "solc",
    "version": "0.8.7+commit.e28d00a7.Emscripten.clang"
  },
  "schemaVersion": "3.4.1",
  "updatedAt": "2021-09-11T16:46:11.866Z",
  "networkType": "ethereum",
  "devdoc": {
    "kind": "dev",
    "methods": {},
    "version": 1
  },
  "userdoc": {
    "kind": "user",
    "methods": {},
    "version": 1
  }
}