{
  "contractName": "Charity",
  "abi": [
    {
      "inputs": [],
      "stateMutability": "nonpayable",
      "type": "constructor"
    },
    {
      "inputs": [
        {
          "internalType": "address",
          "name": "",
          "type": "address"
        }
      ],
      "name": "donatedAmount",
      "outputs": [
        {
          "internalType": "uint256",
          "name": "",
          "type": "uint256"
        }
      ],
      "stateMutability": "view",
      "type": "function",
      "constant": true
    },
    {
      "inputs": [
        {
          "internalType": "address",
          "name": "",
          "type": "address"
        }
      ],
      "name": "donorVote",
      "outputs": [
        {
          "internalType": "address",
          "name": "",
          "type": "address"
        }
      ],
      "stateMutability": "view",
      "type": "function",
      "constant": true
    },
    {
      "inputs": [
        {
          "internalType": "uint256",
          "name": "",
          "type": "uint256"
        }
      ],
      "name": "donors",
      "outputs": [
        {
          "internalType": "address",
          "name": "",
          "type": "address"
        }
      ],
      "stateMutability": "view",
      "type": "function",
      "constant": true
    },
    {
      "inputs": [],
      "name": "lastVoteEndTime",
      "outputs": [
        {
          "internalType": "uint256",
          "name": "",
          "type": "uint256"
        }
      ],
      "stateMutability": "view",
      "type": "function",
      "constant": true
    },
    {
      "inputs": [
        {
          "internalType": "uint256",
          "name": "",
          "type": "uint256"
        }
      ],
      "name": "requesters",
      "outputs": [
        {
          "internalType": "address",
          "name": "",
          "type": "address"
        }
      ],
      "stateMutability": "view",
      "type": "function",
      "constant": true
    },
    {
      "inputs": [
        {
          "internalType": "address",
          "name": "",
          "type": "address"
        },
        {
          "internalType": "uint256",
          "name": "",
          "type": "uint256"
        }
      ],
      "name": "requestorDonors",
      "outputs": [
        {
          "internalType": "address",
          "name": "",
          "type": "address"
        }
      ],
      "stateMutability": "view",
      "type": "function",
      "constant": true
    },
    {
      "inputs": [
        {
          "internalType": "address",
          "name": "",
          "type": "address"
        }
      ],
      "name": "requests",
      "outputs": [
        {
          "internalType": "address",
          "name": "requester",
          "type": "address"
        },
        {
          "internalType": "uint256",
          "name": "amount_requested",
          "type": "uint256"
        },
        {
          "internalType": "string",
          "name": "proof",
          "type": "string"
        }
      ],
      "stateMutability": "view",
      "type": "function",
      "constant": true
    },
    {
      "inputs": [],
      "name": "donate",
      "outputs": [],
      "stateMutability": "payable",
      "type": "function",
      "payable": true
    },
    {
      "inputs": [],
      "name": "purgeStaleRequest",
      "outputs": [],
      "stateMutability": "nonpayable",
      "type": "function"
    },
    {
      "inputs": [],
      "name": "getNumberOfRequests",
      "outputs": [
        {
          "internalType": "uint256",
          "name": "",
          "type": "uint256"
        }
      ],
      "stateMutability": "view",
      "type": "function",
      "constant": true
    },
    {
      "inputs": [
        {
          "internalType": "uint256",
          "name": "requested_amount",
          "type": "uint256"
        },
        {
          "internalType": "string",
          "name": "_proof",
          "type": "string"
        }
      ],
      "name": "new_request",
      "outputs": [],
      "stateMutability": "nonpayable",
      "type": "function"
    },
    {
      "inputs": [
        {
          "internalType": "address",
          "name": "requester_addr",
          "type": "address"
        }
      ],
      "name": "voteForRequest",
      "outputs": [],
      "stateMutability": "nonpayable",
      "type": "function"
    },
    {
      "inputs": [
        {
          "internalType": "address",
          "name": "requester",
          "type": "address"
        }
      ],
      "name": "getRequestVoteCount",
      "outputs": [
        {
          "internalType": "uint256",
          "name": "",
          "type": "uint256"
        }
      ],
      "stateMutability": "view",
      "type": "function",
      "constant": true
    },
    {
      "inputs": [],
      "name": "getLastVoteEndTime",
      "outputs": [
        {
          "internalType": "uint256",
          "name": "",
          "type": "uint256"
        }
      ],
      "stateMutability": "view",
      "type": "function",
      "constant": true
    },
    {
      "inputs": [],
      "name": "getRequests",
      "outputs": [
        {
          "components": [
            {
              "internalType": "address",
              "name": "requester",
              "type": "address"
            },
            {
              "internalType": "uint256",
              "name": "amount_requested",
              "type": "uint256"
            },
            {
              "internalType": "string",
              "name": "proof",
              "type": "string"
            },
            {
              "internalType": "uint256",
              "name": "votes",
              "type": "uint256"
            }
          ],
          "internalType": "struct Charity.ReturnedRequestData[]",
          "name": "",
          "type": "tuple[]"
        }
      ],
      "stateMutability": "view",
      "type": "function",
      "constant": true
    },
    {
      "inputs": [
        {
          "internalType": "address",
          "name": "requester",
          "type": "address"
        }
      ],
      "name": "getRequestDetails",
      "outputs": [
        {
          "internalType": "uint256",
          "name": "",
          "type": "uint256"
        },
        {
          "internalType": "string",
          "name": "",
          "type": "string"
        }
      ],
      "stateMutability": "view",
      "type": "function",
      "constant": true
    },
    {
      "inputs": [],
      "name": "getWinningRequest",
      "outputs": [
        {
          "components": [
            {
              "internalType": "address",
              "name": "requester",
              "type": "address"
            },
            {
              "internalType": "uint256",
              "name": "amount_requested",
              "type": "uint256"
            },
            {
              "internalType": "string",
              "name": "proof",
              "type": "string"
            }
          ],
          "internalType": "struct Charity.Request",
          "name": "",
          "type": "tuple"
        }
      ],
      "stateMutability": "view",
      "type": "function",
      "constant": true
    },
    {
      "inputs": [],
      "name": "getWinningRequestAddress",
      "outputs": [
        {
          "internalType": "address",
          "name": "",
          "type": "address"
        }
      ],
      "stateMutability": "view",
      "type": "function",
      "constant": true
    },
    {
      "inputs": [],
      "name": "withdraw",
      "outputs": [],
      "stateMutability": "nonpayable",
      "type": "function"
    }
  ],
  "bytecode": "0x608060405234801561001057600080fd5b5042600281905550612741806100276000396000f3fe6080604052600436106101145760003560e01c806374adad1d116100a0578063c182213111610064578063c1822131146103de578063db4208fa146103f5578063e05646f314610432578063ed88c68e1461045b578063fb8763441461046557610114565b806374adad1d146102e05780637bc6a4731461031f5780638813ce121461034a5780639738849714610375578063b349885b146103a057610114565b80633f2fb8cc116100e75780633f2fb8cc146101d5578063499d928d146101fe5780634abfa1631461023b5780635e1a6c171461027857806370661719146102b557610114565b8063022f6388146101195780631c0b95581461015657806326d6cd4c146101815780633ccfd60b146101be575b600080fd5b34801561012557600080fd5b50610140600480360381019061013b9190611cca565b610490565b60405161014d91906121d9565b60405180910390f35b34801561016257600080fd5b5061016b6104a8565b60405161017891906121d9565b60405180910390f35b34801561018d57600080fd5b506101a860048036038101906101a39190611cca565b6104b2565b6040516101b591906121d9565b60405180910390f35b3480156101ca57600080fd5b506101d36104fe565b005b3480156101e157600080fd5b506101fc60048036038101906101f79190611d64565b6106dd565b005b34801561020a57600080fd5b5061022560048036038101906102209190611cca565b6108cf565b604051610232919061207c565b60405180910390f35b34801561024757600080fd5b50610262600480360381019061025d9190611d37565b610902565b60405161026f919061207c565b60405180910390f35b34801561028457600080fd5b5061029f600480360381019061029a9190611d37565b610941565b6040516102ac919061207c565b60405180910390f35b3480156102c157600080fd5b506102ca610980565b6040516102d791906121d9565b60405180910390f35b3480156102ec57600080fd5b5061030760048036038101906103029190611cca565b610986565b60405161031693929190612097565b60405180910390f35b34801561032b57600080fd5b50610334610a58565b604051610341919061207c565b60405180910390f35b34801561035657600080fd5b5061035f610c20565b60405161036c91906120d5565b60405180910390f35b34801561038157600080fd5b5061038a61116a565b60405161039791906121d9565b60405180910390f35b3480156103ac57600080fd5b506103c760048036038101906103c29190611cca565b611177565b6040516103d59291906121f4565b60405180910390f35b3480156103ea57600080fd5b506103f36112cf565b005b34801561040157600080fd5b5061041c60048036038101906104179190611cf7565b611313565b604051610429919061207c565b60405180910390f35b34801561043e57600080fd5b5061045960048036038101906104549190611cca565b611361565b005b6104636115d6565b005b34801561047157600080fd5b5061047a6116c8565b60405161048791906121b7565b60405180910390f35b60016020528060005260406000206000915090505481565b6000600254905090565b6000600660008373ffffffffffffffffffffffffffffffffffffffff1673ffffffffffffffffffffffffffffffffffffffff168152602001908152602001600020805490509050919050565b61012c6002544261050f9190612336565b1161054f576040517f08c379a000000000000000000000000000000000000000000000000000000000815260040161054690612117565b60405180910390fd5b6000610559610a58565b90503373ffffffffffffffffffffffffffffffffffffffff1661057a610a58565b73ffffffffffffffffffffffffffffffffffffffff16146105d0576040517f08c379a00000000000000000000000000000000000000000000000000000000081526004016105c790612197565b60405180910390fd5b6000600460008373ffffffffffffffffffffffffffffffffffffffff1673ffffffffffffffffffffffffffffffffffffffff1681526020019081526020016000206001015490508047111561066b573373ffffffffffffffffffffffffffffffffffffffff166108fc829081150290604051600060405180830381858888f19350505050158015610665573d6000803e3d6000fd5b506106b3565b3373ffffffffffffffffffffffffffffffffffffffff166108fc479081150290604051600060405180830381858888f193505050501580156106b1573d6000803e3d6000fd5b505b6106bc82611818565b6106c5826119e8565b61012c426106d391906122e0565b6002819055505050565b6000600460003373ffffffffffffffffffffffffffffffffffffffff1673ffffffffffffffffffffffffffffffffffffffff1681526020019081526020016000206001015414610762576040517f08c379a000000000000000000000000000000000000000000000000000000000815260040161075990612177565b60405180910390fd5b600060405180606001604052803373ffffffffffffffffffffffffffffffffffffffff16815260200184815260200183815250905080600460003373ffffffffffffffffffffffffffffffffffffffff1673ffffffffffffffffffffffffffffffffffffffff16815260200190815260200160002060008201518160000160006101000a81548173ffffffffffffffffffffffffffffffffffffffff021916908373ffffffffffffffffffffffffffffffffffffffff160217905550602082015181600101556040820151816002019080519060200190610844929190611ab7565b509050506003339080600181540180825580915050600190039060005260206000200160009091909190916101000a81548173ffffffffffffffffffffffffffffffffffffffff021916908373ffffffffffffffffffffffffffffffffffffffff1602179055506101a46002546108bb91906122e0565b4211156108ca57426002819055505b505050565b60056020528060005260406000206000915054906101000a900473ffffffffffffffffffffffffffffffffffffffff1681565b6000818154811061091257600080fd5b906000526020600020016000915054906101000a900473ffffffffffffffffffffffffffffffffffffffff1681565b6003818154811061095157600080fd5b906000526020600020016000915054906101000a900473ffffffffffffffffffffffffffffffffffffffff1681565b60025481565b60046020528060005260406000206000915090508060000160009054906101000a900473ffffffffffffffffffffffffffffffffffffffff16908060010154908060020180546109d5906123e8565b80601f0160208091040260200160405190810160405280929190818152602001828054610a01906123e8565b8015610a4e5780601f10610a2357610100808354040283529160200191610a4e565b820191906000526020600020905b815481529060010190602001808311610a3157829003601f168201915b5050505050905083565b60008060009050600080600090505b600380549050811015610bdd5760006006600060038481548110610a8e57610a8d6124f2565b5b9060005260206000200160009054906101000a900473ffffffffffffffffffffffffffffffffffffffff1673ffffffffffffffffffffffffffffffffffffffff1673ffffffffffffffffffffffffffffffffffffffff168152602001908152602001600020805480602002602001604051908101604052809291908181526020018280548015610b7357602002820191906000526020600020905b8160009054906101000a900473ffffffffffffffffffffffffffffffffffffffff1673ffffffffffffffffffffffffffffffffffffffff1681526020019060010190808311610b29575b505050505090508381511115610bc9578051935060038281548110610b9b57610b9a6124f2565b5b9060005260206000200160009054906101000a900473ffffffffffffffffffffffffffffffffffffffff1692505b508080610bd59061244b565b915050610a67565b50600073ffffffffffffffffffffffffffffffffffffffff168173ffffffffffffffffffffffffffffffffffffffff161415610c1857600080fd5b809250505090565b60606000610c2c61116a565b905060008167ffffffffffffffff811115610c4a57610c49612521565b5b604051908082528060200260200182016040528015610c8357816020015b610c70611b3d565b815260200190600190039081610c685790505b5090506000805b83811015610f6f576000805b8451811015610dad576004600060038581548110610cb757610cb66124f2565b5b9060005260206000200160009054906101000a900473ffffffffffffffffffffffffffffffffffffffff1673ffffffffffffffffffffffffffffffffffffffff1673ffffffffffffffffffffffffffffffffffffffff16815260200190815260200160002060000160009054906101000a900473ffffffffffffffffffffffffffffffffffffffff1673ffffffffffffffffffffffffffffffffffffffff16858281518110610d6957610d686124f2565b5b60200260200101516000015173ffffffffffffffffffffffffffffffffffffffff161415610d9a5760019150610dad565b8080610da59061244b565b915050610c96565b5080610f5b576004600060038481548110610dcb57610dca6124f2565b5b9060005260206000200160009054906101000a900473ffffffffffffffffffffffffffffffffffffffff1673ffffffffffffffffffffffffffffffffffffffff1673ffffffffffffffffffffffffffffffffffffffff1681526020019081526020016000206040518060600160405290816000820160009054906101000a900473ffffffffffffffffffffffffffffffffffffffff1673ffffffffffffffffffffffffffffffffffffffff1673ffffffffffffffffffffffffffffffffffffffff16815260200160018201548152602001600282018054610eab906123e8565b80601f0160208091040260200160405190810160405280929190818152602001828054610ed7906123e8565b8015610f245780601f10610ef957610100808354040283529160200191610f24565b820191906000526020600020905b815481529060010190602001808311610f0757829003601f168201915b505050505081525050848481518110610f4057610f3f6124f2565b5b6020026020010181905250600183610f5891906122e0565b92505b508080610f679061244b565b915050610c8a565b506000825167ffffffffffffffff811115610f8d57610f8c612521565b5b604051908082528060200260200182016040528015610fc657816020015b610fb3611b74565b815260200190600190039081610fab5790505b50905060005b835181101561115f57838181518110610fe857610fe76124f2565b5b602002602001015160000151828281518110611007576110066124f2565b5b60200260200101516000019073ffffffffffffffffffffffffffffffffffffffff16908173ffffffffffffffffffffffffffffffffffffffff1681525050838181518110611058576110576124f2565b5b602002602001015160200151828281518110611077576110766124f2565b5b6020026020010151602001818152505083818151811061109a576110996124f2565b5b6020026020010151604001518282815181106110b9576110b86124f2565b5b602002602001015160400181905250600660008583815181106110df576110de6124f2565b5b60200260200101516000015173ffffffffffffffffffffffffffffffffffffffff1673ffffffffffffffffffffffffffffffffffffffff1681526020019081526020016000208054905082828151811061113c5761113b6124f2565b5b6020026020010151606001818152505080806111579061244b565b915050610fcc565b508094505050505090565b6000600380549050905090565b600060606000600460008573ffffffffffffffffffffffffffffffffffffffff1673ffffffffffffffffffffffffffffffffffffffff1681526020019081526020016000206040518060600160405290816000820160009054906101000a900473ffffffffffffffffffffffffffffffffffffffff1673ffffffffffffffffffffffffffffffffffffffff1673ffffffffffffffffffffffffffffffffffffffff16815260200160018201548152602001600282018054611237906123e8565b80601f0160208091040260200160405190810160405280929190818152602001828054611263906123e8565b80156112b05780601f10611285576101008083540402835291602001916112b0565b820191906000526020600020905b81548152906001019060200180831161129357829003601f168201915b5050505050815250509050806020015181604001519250925050915091565b6101a4600254426112e09190612336565b116112ea57600080fd5b6112fa6112f5610a58565b611818565b61130a611305610a58565b6119e8565b42600281905550565b6006602052816000526040600020818154811061132f57600080fd5b906000526020600020016000915091509054906101000a900473ffffffffffffffffffffffffffffffffffffffff1681565b6000600460008373ffffffffffffffffffffffffffffffffffffffff1673ffffffffffffffffffffffffffffffffffffffff1681526020019081526020016000206001015414156113e7576040517f08c379a00000000000000000000000000000000000000000000000000000000081526004016113de906120f7565b60405180910390fd5b600073ffffffffffffffffffffffffffffffffffffffff16600560003373ffffffffffffffffffffffffffffffffffffffff1673ffffffffffffffffffffffffffffffffffffffff16815260200190815260200160002060009054906101000a900473ffffffffffffffffffffffffffffffffffffffff1673ffffffffffffffffffffffffffffffffffffffff16146114b5576040517f08c379a00000000000000000000000000000000000000000000000000000000081526004016114ac90612157565b60405180910390fd5b80600560003373ffffffffffffffffffffffffffffffffffffffff1673ffffffffffffffffffffffffffffffffffffffff16815260200190815260200160002060006101000a81548173ffffffffffffffffffffffffffffffffffffffff021916908373ffffffffffffffffffffffffffffffffffffffff160217905550600660008273ffffffffffffffffffffffffffffffffffffffff1673ffffffffffffffffffffffffffffffffffffffff168152602001908152602001600020339080600181540180825580915050600190039060005260206000200160009091909190916101000a81548173ffffffffffffffffffffffffffffffffffffffff021916908373ffffffffffffffffffffffffffffffffffffffff16021790555050565b662386f26fc10000341161161f576040517f08c379a000000000000000000000000000000000000000000000000000000000815260040161161690612137565b60405180910390fd5b6000339080600181540180825580915050600190039060005260206000200160009091909190916101000a81548173ffffffffffffffffffffffffffffffffffffffff021916908373ffffffffffffffffffffffffffffffffffffffff16021790555034600160003373ffffffffffffffffffffffffffffffffffffffff1673ffffffffffffffffffffffffffffffffffffffff16815260200190815260200160002081905550565b6116d0611b3d565b600460006116dc610a58565b73ffffffffffffffffffffffffffffffffffffffff1673ffffffffffffffffffffffffffffffffffffffff1681526020019081526020016000206040518060600160405290816000820160009054906101000a900473ffffffffffffffffffffffffffffffffffffffff1673ffffffffffffffffffffffffffffffffffffffff1673ffffffffffffffffffffffffffffffffffffffff16815260200160018201548152602001600282018054611791906123e8565b80601f01602080910402602001604051908101604052809291908181526020018280546117bd906123e8565b801561180a5780601f106117df5761010080835404028352916020019161180a565b820191906000526020600020905b8154815290600101906020018083116117ed57829003601f168201915b505050505081525050905090565b6000600660008373ffffffffffffffffffffffffffffffffffffffff1673ffffffffffffffffffffffffffffffffffffffff1681526020019081526020016000208054806020026020016040519081016040528092919081815260200182805480156118d957602002820191906000526020600020905b8160009054906101000a900473ffffffffffffffffffffffffffffffffffffffff1673ffffffffffffffffffffffffffffffffffffffff168152602001906001019080831161188f575b505050505090506000815111156119e45760005b81518110156119e2576001600083838151811061190d5761190c6124f2565b5b602002602001015173ffffffffffffffffffffffffffffffffffffffff1673ffffffffffffffffffffffffffffffffffffffff168152602001908152602001600020600090556005600083838151811061196a576119696124f2565b5b602002602001015173ffffffffffffffffffffffffffffffffffffffff1673ffffffffffffffffffffffffffffffffffffffff16815260200190815260200160002060006101000a81549073ffffffffffffffffffffffffffffffffffffffff021916905580806119da9061244b565b9150506118ed565b505b5050565b600460008273ffffffffffffffffffffffffffffffffffffffff1673ffffffffffffffffffffffffffffffffffffffff168152602001908152602001600020600080820160006101000a81549073ffffffffffffffffffffffffffffffffffffffff02191690556001820160009055600282016000611a679190611bb2565b5050600660008273ffffffffffffffffffffffffffffffffffffffff1673ffffffffffffffffffffffffffffffffffffffff1681526020019081526020016000206000611ab49190611bf2565b50565b828054611ac3906123e8565b90600052602060002090601f016020900481019282611ae55760008555611b2c565b82601f10611afe57805160ff1916838001178555611b2c565b82800160010185558215611b2c579182015b82811115611b2b578251825591602001919060010190611b10565b5b509050611b399190611c13565b5090565b6040518060600160405280600073ffffffffffffffffffffffffffffffffffffffff16815260200160008152602001606081525090565b6040518060800160405280600073ffffffffffffffffffffffffffffffffffffffff1681526020016000815260200160608152602001600081525090565b508054611bbe906123e8565b6000825580601f10611bd05750611bef565b601f016020900490600052602060002090810190611bee9190611c13565b5b50565b5080546000825590600052602060002090810190611c109190611c13565b50565b5b80821115611c2c576000816000905550600101611c14565b5090565b6000611c43611c3e84612249565b612224565b905082815260208101848484011115611c5f57611c5e612555565b5b611c6a8482856123a6565b509392505050565b600081359050611c81816126dd565b92915050565b600082601f830112611c9c57611c9b612550565b5b8135611cac848260208601611c30565b91505092915050565b600081359050611cc4816126f4565b92915050565b600060208284031215611ce057611cdf61255f565b5b6000611cee84828501611c72565b91505092915050565b60008060408385031215611d0e57611d0d61255f565b5b6000611d1c85828601611c72565b9250506020611d2d85828601611cb5565b9150509250929050565b600060208284031215611d4d57611d4c61255f565b5b6000611d5b84828501611cb5565b91505092915050565b60008060408385031215611d7b57611d7a61255f565b5b6000611d8985828601611cb5565b925050602083013567ffffffffffffffff811115611daa57611da961255a565b5b611db685828601611c87565b9150509250929050565b6000611dcc8383611ffb565b905092915050565b611ddd8161236a565b82525050565b611dec8161236a565b82525050565b6000611dfd8261228a565b611e0781856122ad565b935083602082028501611e198561227a565b8060005b85811015611e555784840389528151611e368582611dc0565b9450611e41836122a0565b925060208a01995050600181019050611e1d565b50829750879550505050505092915050565b6000611e7282612295565b611e7c81856122be565b9350611e8c8185602086016123b5565b611e9581612564565b840191505092915050565b6000611eab82612295565b611eb581856122cf565b9350611ec58185602086016123b5565b611ece81612564565b840191505092915050565b6000611ee66016836122cf565b9150611ef182612575565b602082019050919050565b6000611f09601c836122cf565b9150611f148261259e565b602082019050919050565b6000611f2c6026836122cf565b9150611f37826125c7565b604082019050919050565b6000611f4f6016836122cf565b9150611f5a82612616565b602082019050919050565b6000611f726025836122cf565b9150611f7d8261263f565b604082019050919050565b6000611f95602c836122cf565b9150611fa08261268e565b604082019050919050565b6000606083016000830151611fc36000860182611dd4565b506020830151611fd6602086018261205e565b5060408301518482036040860152611fee8282611e67565b9150508091505092915050565b60006080830160008301516120136000860182611dd4565b506020830151612026602086018261205e565b506040830151848203604086015261203e8282611e67565b9150506060830151612053606086018261205e565b508091505092915050565b6120678161239c565b82525050565b6120768161239c565b82525050565b60006020820190506120916000830184611de3565b92915050565b60006060820190506120ac6000830186611de3565b6120b9602083018561206d565b81810360408301526120cb8184611ea0565b9050949350505050565b600060208201905081810360008301526120ef8184611df2565b905092915050565b6000602082019050818103600083015261211081611ed9565b9050919050565b6000602082019050818103600083015261213081611efc565b9050919050565b6000602082019050818103600083015261215081611f1f565b9050919050565b6000602082019050818103600083015261217081611f42565b9050919050565b6000602082019050818103600083015261219081611f65565b9050919050565b600060208201905081810360008301526121b081611f88565b9050919050565b600060208201905081810360008301526121d18184611fab565b905092915050565b60006020820190506121ee600083018461206d565b92915050565b6000604082019050612209600083018561206d565b818103602083015261221b8184611ea0565b90509392505050565b600061222e61223f565b905061223a828261241a565b919050565b6000604051905090565b600067ffffffffffffffff82111561226457612263612521565b5b61226d82612564565b9050602081019050919050565b6000819050602082019050919050565b600081519050919050565b600081519050919050565b6000602082019050919050565b600082825260208201905092915050565b600082825260208201905092915050565b600082825260208201905092915050565b60006122eb8261239c565b91506122f68361239c565b9250827fffffffffffffffffffffffffffffffffffffffffffffffffffffffffffffffff0382111561232b5761232a612494565b5b828201905092915050565b60006123418261239c565b915061234c8361239c565b92508282101561235f5761235e612494565b5b828203905092915050565b60006123758261237c565b9050919050565b600073ffffffffffffffffffffffffffffffffffffffff82169050919050565b6000819050919050565b82818337600083830152505050565b60005b838110156123d35780820151818401526020810190506123b8565b838111156123e2576000848401525b50505050565b6000600282049050600182168061240057607f821691505b60208210811415612414576124136124c3565b5b50919050565b61242382612564565b810181811067ffffffffffffffff8211171561244257612441612521565b5b80604052505050565b60006124568261239c565b91507fffffffffffffffffffffffffffffffffffffffffffffffffffffffffffffffff82141561248957612488612494565b5b600182019050919050565b7f4e487b7100000000000000000000000000000000000000000000000000000000600052601160045260246000fd5b7f4e487b7100000000000000000000000000000000000000000000000000000000600052602260045260246000fd5b7f4e487b7100000000000000000000000000000000000000000000000000000000600052603260045260246000fd5b7f4e487b7100000000000000000000000000000000000000000000000000000000600052604160045260246000fd5b600080fd5b600080fd5b600080fd5b600080fd5b6000601f19601f8301169050919050565b7f7265717565737420646f6573206e6f7420657869737400000000000000000000600082015250565b7f74686520726f756e6420686173206e6f7420656e646564207965742100000000600082015250565b7f796f75206861766520746f20646f6e617465206d6f7265207468616e20302e3060008201527f3120455448210000000000000000000000000000000000000000000000000000602082015250565b7f796f75206861766520616c726561647920766f74656400000000000000000000600082015250565b7f596f7520616c726561647920686176652061207375626d69747465642072657160008201527f7565737421000000000000000000000000000000000000000000000000000000602082015250565b7f596f7520646f206e6f74206861766520746865206d6f737420766f746573207460008201527f68697320726f756e64203a280000000000000000000000000000000000000000602082015250565b6126e68161236a565b81146126f157600080fd5b50565b6126fd8161239c565b811461270857600080fd5b5056fea264697066735822122082d28c87f2526497146fce22513c513861463f517a951597422897e9bbbaf27e64736f6c63430008070033",
  "immutableReferences": {},
  "source": "// SPDX-License-Identifier: MIT\r\npragma solidity 0.8.7;\r\n\r\ncontract Charity {\r\n    struct Request {\r\n        address requester;\r\n        uint256 amount_requested;\r\n        string proof;\r\n    }\r\n\r\n    struct ReturnedRequestData {\r\n        address requester;\r\n        uint256 amount_requested;\r\n        string proof;\r\n        uint256 votes;\r\n    }\r\n\r\n    address[] public donors; // entire history of donators\r\n    mapping(address => uint256) public donatedAmount; // donor to donated amount mapping\r\n    uint256 public lastVoteEndTime;\r\n    address[] public requesters; // entire history of requestors\r\n    mapping(address => Request) public requests; // requestor to request mapping\r\n    mapping(address => address) public donorVote; // donor to request mapping\r\n    mapping(address => address[]) public requestorDonors; // requestor to donors mapping\r\n\r\n    constructor() {\r\n        lastVoteEndTime = block.timestamp;\r\n    }\r\n\r\n    function donate() external payable {\r\n        require(\r\n            msg.value > 0.01 ether,\r\n            \"you have to donate more than 0.01 ETH!\"\r\n        );\r\n        donors.push(msg.sender);\r\n        donatedAmount[msg.sender] = msg.value;\r\n    }\r\n\r\n    function purgeStaleRequest() public {\r\n        require(block.timestamp - lastVoteEndTime > 7 minutes);\r\n        purgeDonors(getWinningRequestAddress());\r\n        purgeRequest(getWinningRequestAddress());\r\n        lastVoteEndTime = block.timestamp;\r\n    }\r\n\r\n    function getNumberOfRequests() public view returns (uint256) {\r\n        return requesters.length;\r\n    }\r\n\r\n    function purgeRequest(address requester) private {\r\n        delete requests[requester];\r\n        delete requestorDonors[requester];\r\n    }\r\n\r\n    function purgeDonors(address requester) private {\r\n        address[] memory currentDonors = requestorDonors[requester];\r\n        if (currentDonors.length > 0) {\r\n            for (uint256 i = 0; i < currentDonors.length; i++) {\r\n                delete donatedAmount[currentDonors[i]];\r\n                delete donorVote[currentDonors[i]];\r\n            }\r\n        }\r\n        // delete requestorDonors[requester];\r\n    }\r\n\r\n    function new_request(uint256 requested_amount, string memory _proof)\r\n        external\r\n    {\r\n        require(\r\n            requests[msg.sender].amount_requested == 0,\r\n            \"You already have a submitted request!\"\r\n        ); // the person should not have put up a request before\r\n        Request memory request = Request({\r\n            requester: msg.sender,\r\n            amount_requested: requested_amount,\r\n            proof: _proof\r\n        });\r\n        requests[msg.sender] = request;\r\n        requesters.push(msg.sender);\r\n        // if (!requestMapping[msg.sender]) {\r\n        //     requestMapping[msg.sender] = request;\r\n        //     requesters.push(msg.sender);\r\n        // }\r\n        if(block.timestamp > lastVoteEndTime + 7 minutes) {\r\n            lastVoteEndTime = block.timestamp;\r\n        }\r\n    }\r\n\r\n    function voteForRequest(address requester_addr)\r\n        external\r\n    {\r\n        require(\r\n            requests[requester_addr].amount_requested != 0,\r\n            \"request does not exist\"\r\n        ); // ensure that request for the corresponding requestor exists\r\n        require(donorVote[msg.sender] == address(0), \"you have already voted\"); // check that donor has not voted for anyone yet\r\n        donorVote[msg.sender] = requester_addr; // add voting for donor\r\n        requestorDonors[requester_addr].push(msg.sender); // add donor to the requestors map\r\n    }\r\n\r\n    function getRequestVoteCount(address requester)\r\n        public\r\n        view\r\n        returns (uint256)\r\n    {\r\n        return requestorDonors[requester].length;\r\n    }\r\n\r\n    function getLastVoteEndTime() public view returns (uint256) {\r\n        return lastVoteEndTime;\r\n    }\r\n\r\n    // Todo remove duplicate requestors fom the map i.e keep track of repeated reqs and dont show. Had to be unique\r\n    function getRequests() public view returns (ReturnedRequestData[] memory) {\r\n        uint256 n = getNumberOfRequests();\r\n        Request[] memory reqs = new Request[](n);\r\n        uint256 x = 0;\r\n        for (uint256 i = 0; i < n; i++) {\r\n            bool isFound = false;\r\n            for (uint256 j = 0; j < reqs.length; j++) {\r\n                if (reqs[j].requester == requests[requesters[i]].requester) {\r\n                    isFound = true;\r\n                    break;\r\n                }\r\n            }\r\n            if (!isFound) {\r\n                reqs[x] = requests[requesters[i]];\r\n                x += 1;\r\n            }\r\n        }\r\n\r\n        ReturnedRequestData[] memory ret = new ReturnedRequestData[](\r\n            reqs.length\r\n        );\r\n        for (uint256 i = 0; i < reqs.length; i++) {\r\n            ret[i].requester = reqs[i].requester;\r\n            ret[i].amount_requested = reqs[i].amount_requested;\r\n            ret[i].proof = reqs[i].proof;\r\n            ret[i].votes = requestorDonors[reqs[i].requester].length;\r\n        }\r\n\r\n        return ret;\r\n    }\r\n\r\n    function getRequestDetails(address requester)\r\n        public\r\n        view\r\n        returns (uint256, string memory)\r\n    {\r\n        Request memory request = requests[requester];\r\n        return (request.amount_requested, request.proof);\r\n    }\r\n\r\n    function getWinningRequest() public view returns (Request memory) {\r\n        return requests[getWinningRequestAddress()];\r\n    }\r\n\r\n    function getWinningRequestAddress() public view returns (address) {\r\n        uint256 highestVotes = 0;\r\n        address winningRequestAddr;\r\n        for (uint256 i = 0; i < requesters.length; i++) {\r\n            address[] memory requestDonors = requestorDonors[requesters[i]];\r\n            if (requestDonors.length > highestVotes) {\r\n                highestVotes = requestDonors.length;\r\n                winningRequestAddr = requesters[i];\r\n            }\r\n        }\r\n        require(winningRequestAddr != address(0));\r\n        return winningRequestAddr;\r\n    }\r\n\r\n    function withdraw() external {\r\n        require(\r\n            block.timestamp - lastVoteEndTime > 5 minutes,\r\n            \"the round has not ended yet!\"\r\n        );\r\n        address winningAddress = getWinningRequestAddress();\r\n        require(\r\n            getWinningRequestAddress() == msg.sender,\r\n            \"You do not have the most votes this round :(\"\r\n        );\r\n        uint256 requestedAmount = requests[winningAddress].amount_requested;\r\n        if (address(this).balance > requestedAmount) {\r\n            payable(msg.sender).transfer(requestedAmount);\r\n        } else {\r\n            payable(msg.sender).transfer(address(this).balance);\r\n        }\r\n        purgeDonors(winningAddress);\r\n        purgeRequest(winningAddress);\r\n        lastVoteEndTime = block.timestamp + 5 minutes;\r\n    }\r\n}\r\n",
  "sourcePath": "g:/EE4032/contracts/Charity.sol",
  "compiler": {
    "name": "solc",
    "version": "0.8.7+commit.e28d00a7.Emscripten.clang"
  },
  "schemaVersion": "3.4.1",
  "updatedAt": "2021-09-11T09:02:06.591Z",
  "networkType": "ethereum",
  "devdoc": {
    "kind": "dev",
    "methods": {},
    "version": 1
  },
  "userdoc": {
    "kind": "user",
    "methods": {},
    "version": 1
  }
}