{
  "contractName": "Charity",
  "abi": [
    {
      "inputs": [],
      "stateMutability": "nonpayable",
      "type": "constructor"
    },
    {
      "inputs": [
        {
          "internalType": "address",
          "name": "",
          "type": "address"
        }
      ],
      "name": "donatedAmount",
      "outputs": [
        {
          "internalType": "uint256",
          "name": "",
          "type": "uint256"
        }
      ],
      "stateMutability": "view",
      "type": "function",
      "constant": true
    },
    {
      "inputs": [
        {
          "internalType": "address",
          "name": "",
          "type": "address"
        }
      ],
      "name": "donorVote",
      "outputs": [
        {
          "internalType": "address",
          "name": "",
          "type": "address"
        }
      ],
      "stateMutability": "view",
      "type": "function",
      "constant": true
    },
    {
      "inputs": [
        {
          "internalType": "uint256",
          "name": "",
          "type": "uint256"
        }
      ],
      "name": "donors",
      "outputs": [
        {
          "internalType": "address",
          "name": "",
          "type": "address"
        }
      ],
      "stateMutability": "view",
      "type": "function",
      "constant": true
    },
    {
      "inputs": [
        {
          "internalType": "uint256",
          "name": "",
          "type": "uint256"
        }
      ],
      "name": "requesters",
      "outputs": [
        {
          "internalType": "address",
          "name": "",
          "type": "address"
        }
      ],
      "stateMutability": "view",
      "type": "function",
      "constant": true
    },
    {
      "inputs": [
        {
          "internalType": "address",
          "name": "",
          "type": "address"
        },
        {
          "internalType": "uint256",
          "name": "",
          "type": "uint256"
        }
      ],
      "name": "requestorDonors",
      "outputs": [
        {
          "internalType": "address",
          "name": "",
          "type": "address"
        }
      ],
      "stateMutability": "view",
      "type": "function",
      "constant": true
    },
    {
      "inputs": [
        {
          "internalType": "address",
          "name": "",
          "type": "address"
        }
      ],
      "name": "requests",
      "outputs": [
        {
          "internalType": "uint256",
          "name": "amount_requested",
          "type": "uint256"
        },
        {
          "internalType": "string",
          "name": "proof",
          "type": "string"
        }
      ],
      "stateMutability": "view",
      "type": "function",
      "constant": true
    },
    {
      "inputs": [],
      "name": "donate",
      "outputs": [],
      "stateMutability": "payable",
      "type": "function",
      "payable": true
    },
    {
      "inputs": [
        {
          "internalType": "uint256",
          "name": "requested_amount",
          "type": "uint256"
        },
        {
          "internalType": "string",
          "name": "_proof",
          "type": "string"
        }
      ],
      "name": "new_request",
      "outputs": [],
      "stateMutability": "nonpayable",
      "type": "function"
    },
    {
      "inputs": [
        {
          "internalType": "address",
          "name": "requester_addr",
          "type": "address"
        }
      ],
      "name": "voteForRequest",
      "outputs": [],
      "stateMutability": "nonpayable",
      "type": "function"
    },
    {
      "inputs": [
        {
          "internalType": "address",
          "name": "requester",
          "type": "address"
        }
      ],
      "name": "getRequestVoteCount",
      "outputs": [
        {
          "internalType": "uint256",
          "name": "",
          "type": "uint256"
        }
      ],
      "stateMutability": "view",
      "type": "function",
      "constant": true
    },
    {
      "inputs": [
        {
          "internalType": "address",
          "name": "requester",
          "type": "address"
        }
      ],
      "name": "getRequestDetails",
      "outputs": [
        {
          "internalType": "uint256",
          "name": "",
          "type": "uint256"
        },
        {
          "internalType": "string",
          "name": "",
          "type": "string"
        }
      ],
      "stateMutability": "view",
      "type": "function",
      "constant": true
    },
    {
      "inputs": [],
      "name": "getWinningRequest",
      "outputs": [
        {
          "components": [
            {
              "internalType": "uint256",
              "name": "amount_requested",
              "type": "uint256"
            },
            {
              "internalType": "string",
              "name": "proof",
              "type": "string"
            }
          ],
          "internalType": "struct Charity.Request",
          "name": "",
          "type": "tuple"
        }
      ],
      "stateMutability": "view",
      "type": "function",
      "constant": true
    },
    {
      "inputs": [],
      "name": "getWinningRequestAddress",
      "outputs": [
        {
          "internalType": "address",
          "name": "",
          "type": "address"
        }
      ],
      "stateMutability": "view",
      "type": "function",
      "constant": true
    },
    {
      "inputs": [],
      "name": "withdraw",
      "outputs": [],
      "stateMutability": "nonpayable",
      "type": "function"
    }
  ],
  "bytecode": "0x608060405234801561001057600080fd5b5042600281905550611a07806100276000396000f3fe6080604052600436106100dd5760003560e01c806374adad1d1161007f578063db4208fa11610059578063db4208fa146102fa578063e05646f314610337578063ed88c68e14610360578063fb8763441461036a576100dd565b806374adad1d146102535780637bc6a47314610291578063b349885b146102bc576100dd565b80633f2fb8cc116100bb5780633f2fb8cc14610173578063499d928d1461019c5780634abfa163146101d95780635e1a6c1714610216576100dd565b8063022f6388146100e257806326d6cd4c1461011f5780633ccfd60b1461015c575b600080fd5b3480156100ee57600080fd5b5061010960048036038101906101049190611363565b610395565b60405161011691906115f8565b60405180910390f35b34801561012b57600080fd5b5061014660048036038101906101419190611363565b6103ad565b60405161015391906115f8565b60405180910390f35b34801561016857600080fd5b506101716103f9565b005b34801561017f57600080fd5b5061019a600480360381019061019591906113fd565b61058f565b005b3480156101a857600080fd5b506101c360048036038101906101be9190611363565b6106c9565b6040516101d0919061157b565b60405180910390f35b3480156101e557600080fd5b5061020060048036038101906101fb91906113d0565b6106fc565b60405161020d919061157b565b60405180910390f35b34801561022257600080fd5b5061023d600480360381019061023891906113d0565b61073b565b60405161024a919061157b565b60405180910390f35b34801561025f57600080fd5b5061027a60048036038101906102759190611363565b61077a565b604051610288929190611613565b60405180910390f35b34801561029d57600080fd5b506102a6610826565b6040516102b3919061157b565b60405180910390f35b3480156102c857600080fd5b506102e360048036038101906102de9190611363565b6109ee565b6040516102f1929190611613565b60405180910390f35b34801561030657600080fd5b50610321600480360381019061031c9190611390565b610af0565b60405161032e919061157b565b60405180910390f35b34801561034357600080fd5b5061035e60048036038101906103599190611363565b610b3e565b005b610368610d47565b005b34801561037657600080fd5b5061037f610e39565b60405161038c91906115d6565b60405180910390f35b60016020528060005260406000206000915090505481565b6000600660008373ffffffffffffffffffffffffffffffffffffffff1673ffffffffffffffffffffffffffffffffffffffff168152602001908152602001600020805490509050919050565b620151806002544261040b91906116c6565b1161041557600080fd5b600061041f610826565b90503373ffffffffffffffffffffffffffffffffffffffff16610440610826565b73ffffffffffffffffffffffffffffffffffffffff1614610496576040517f08c379a000000000000000000000000000000000000000000000000000000000815260040161048d906115b6565b60405180910390fd5b6000600460008373ffffffffffffffffffffffffffffffffffffffff1673ffffffffffffffffffffffffffffffffffffffff16815260200190815260200160002060000154905080471115610531573373ffffffffffffffffffffffffffffffffffffffff166108fc829081150290604051600060405180830381858888f1935050505015801561052b573d6000803e3d6000fd5b50610579565b3373ffffffffffffffffffffffffffffffffffffffff166108fc479081150290604051600060405180830381858888f19350505050158015610577573d6000803e3d6000fd5b505b61058282610f33565b61058b82610f90565b5050565b6000600460003373ffffffffffffffffffffffffffffffffffffffff1673ffffffffffffffffffffffffffffffffffffffff16815260200190815260200160002060000154146105de57600080fd5b6000604051806040016040528084815260200183815250905080600460003373ffffffffffffffffffffffffffffffffffffffff1673ffffffffffffffffffffffffffffffffffffffff16815260200190815260200160002060008201518160000155602082015181600101908051906020019061065d9291906111ab565b509050506003339080600181540180825580915050600190039060005260206000200160009091909190916101000a81548173ffffffffffffffffffffffffffffffffffffffff021916908373ffffffffffffffffffffffffffffffffffffffff160217905550505050565b60056020528060005260406000206000915054906101000a900473ffffffffffffffffffffffffffffffffffffffff1681565b6000818154811061070c57600080fd5b906000526020600020016000915054906101000a900473ffffffffffffffffffffffffffffffffffffffff1681565b6003818154811061074b57600080fd5b906000526020600020016000915054906101000a900473ffffffffffffffffffffffffffffffffffffffff1681565b60046020528060005260406000206000915090508060000154908060010180546107a390611778565b80601f01602080910402602001604051908101604052809291908181526020018280546107cf90611778565b801561081c5780601f106107f15761010080835404028352916020019161081c565b820191906000526020600020905b8154815290600101906020018083116107ff57829003601f168201915b5050505050905082565b60008060009050600080600090505b6003805490508110156109ab576000600660006003848154811061085c5761085b611882565b5b9060005260206000200160009054906101000a900473ffffffffffffffffffffffffffffffffffffffff1673ffffffffffffffffffffffffffffffffffffffff1673ffffffffffffffffffffffffffffffffffffffff16815260200190815260200160002080548060200260200160405190810160405280929190818152602001828054801561094157602002820191906000526020600020905b8160009054906101000a900473ffffffffffffffffffffffffffffffffffffffff1673ffffffffffffffffffffffffffffffffffffffff16815260200190600101908083116108f7575b50505050509050838151111561099757805193506003828154811061096957610968611882565b5b9060005260206000200160009054906101000a900473ffffffffffffffffffffffffffffffffffffffff1692505b5080806109a3906117db565b915050610835565b50600073ffffffffffffffffffffffffffffffffffffffff168173ffffffffffffffffffffffffffffffffffffffff1614156109e657600080fd5b809250505090565b600060606000600460008573ffffffffffffffffffffffffffffffffffffffff1673ffffffffffffffffffffffffffffffffffffffff16815260200190815260200160002060405180604001604052908160008201548152602001600182018054610a5890611778565b80601f0160208091040260200160405190810160405280929190818152602001828054610a8490611778565b8015610ad15780601f10610aa657610100808354040283529160200191610ad1565b820191906000526020600020905b815481529060010190602001808311610ab457829003601f168201915b5050505050815250509050806000015181602001519250925050915091565b60066020528160005260406000208181548110610b0c57600080fd5b906000526020600020016000915091509054906101000a900473ffffffffffffffffffffffffffffffffffffffff1681565b6000600460008373ffffffffffffffffffffffffffffffffffffffff1673ffffffffffffffffffffffffffffffffffffffff168152602001908152602001600020600001541415610b8e57600080fd5b600073ffffffffffffffffffffffffffffffffffffffff16600560003373ffffffffffffffffffffffffffffffffffffffff1673ffffffffffffffffffffffffffffffffffffffff16815260200190815260200160002060009054906101000a900473ffffffffffffffffffffffffffffffffffffffff1673ffffffffffffffffffffffffffffffffffffffff1614610c2657600080fd5b80600560003373ffffffffffffffffffffffffffffffffffffffff1673ffffffffffffffffffffffffffffffffffffffff16815260200190815260200160002060006101000a81548173ffffffffffffffffffffffffffffffffffffffff021916908373ffffffffffffffffffffffffffffffffffffffff160217905550600660008273ffffffffffffffffffffffffffffffffffffffff1673ffffffffffffffffffffffffffffffffffffffff168152602001908152602001600020339080600181540180825580915050600190039060005260206000200160009091909190916101000a81548173ffffffffffffffffffffffffffffffffffffffff021916908373ffffffffffffffffffffffffffffffffffffffff16021790555050565b662386f26fc100003411610d90576040517f08c379a0000000000000000000000000000000000000000000000000000000008152600401610d8790611596565b60405180910390fd5b6000339080600181540180825580915050600190039060005260206000200160009091909190916101000a81548173ffffffffffffffffffffffffffffffffffffffff021916908373ffffffffffffffffffffffffffffffffffffffff16021790555034600160003373ffffffffffffffffffffffffffffffffffffffff1673ffffffffffffffffffffffffffffffffffffffff16815260200190815260200160002081905550565b610e41611231565b60046000610e4d610826565b73ffffffffffffffffffffffffffffffffffffffff1673ffffffffffffffffffffffffffffffffffffffff16815260200190815260200160002060405180604001604052908160008201548152602001600182018054610eac90611778565b80601f0160208091040260200160405190810160405280929190818152602001828054610ed890611778565b8015610f255780601f10610efa57610100808354040283529160200191610f25565b820191906000526020600020905b815481529060010190602001808311610f0857829003601f168201915b505050505081525050905090565b600460008273ffffffffffffffffffffffffffffffffffffffff1673ffffffffffffffffffffffffffffffffffffffff168152602001908152602001600020600080820160009055600182016000610f8b919061124b565b505050565b6000600660008373ffffffffffffffffffffffffffffffffffffffff1673ffffffffffffffffffffffffffffffffffffffff16815260200190815260200160002080548060200260200160405190810160405280929190818152602001828054801561105157602002820191906000526020600020905b8160009054906101000a900473ffffffffffffffffffffffffffffffffffffffff1673ffffffffffffffffffffffffffffffffffffffff1681526020019060010190808311611007575b5050505050905060008151111561115c5760005b815181101561115a576001600083838151811061108557611084611882565b5b602002602001015173ffffffffffffffffffffffffffffffffffffffff1673ffffffffffffffffffffffffffffffffffffffff16815260200190815260200160002060009055600560008383815181106110e2576110e1611882565b5b602002602001015173ffffffffffffffffffffffffffffffffffffffff1673ffffffffffffffffffffffffffffffffffffffff16815260200190815260200160002060006101000a81549073ffffffffffffffffffffffffffffffffffffffff02191690558080611152906117db565b915050611065565b505b600660008373ffffffffffffffffffffffffffffffffffffffff1673ffffffffffffffffffffffffffffffffffffffff16815260200190815260200160002060006111a7919061128b565b5050565b8280546111b790611778565b90600052602060002090601f0160209004810192826111d95760008555611220565b82601f106111f257805160ff1916838001178555611220565b82800160010185558215611220579182015b8281111561121f578251825591602001919060010190611204565b5b50905061122d91906112ac565b5090565b604051806040016040528060008152602001606081525090565b50805461125790611778565b6000825580601f106112695750611288565b601f01602090049060005260206000209081019061128791906112ac565b5b50565b50805460008255906000526020600020908101906112a991906112ac565b50565b5b808211156112c55760008160009055506001016112ad565b5090565b60006112dc6112d784611668565b611643565b9050828152602081018484840111156112f8576112f76118e5565b5b611303848285611736565b509392505050565b60008135905061131a816119a3565b92915050565b600082601f830112611335576113346118e0565b5b81356113458482602086016112c9565b91505092915050565b60008135905061135d816119ba565b92915050565b600060208284031215611379576113786118ef565b5b60006113878482850161130b565b91505092915050565b600080604083850312156113a7576113a66118ef565b5b60006113b58582860161130b565b92505060206113c68582860161134e565b9150509250929050565b6000602082840312156113e6576113e56118ef565b5b60006113f48482850161134e565b91505092915050565b60008060408385031215611414576114136118ef565b5b60006114228582860161134e565b925050602083013567ffffffffffffffff811115611443576114426118ea565b5b61144f85828601611320565b9150509250929050565b611462816116fa565b82525050565b600061147382611699565b61147d81856116a4565b935061148d818560208601611745565b611496816118f4565b840191505092915050565b60006114ac82611699565b6114b681856116b5565b93506114c6818560208601611745565b6114cf816118f4565b840191505092915050565b60006114e76026836116b5565b91506114f282611905565b604082019050919050565b600061150a602c836116b5565b915061151582611954565b604082019050919050565b6000604083016000830151611538600086018261155d565b50602083015184820360208601526115508282611468565b9150508091505092915050565b6115668161172c565b82525050565b6115758161172c565b82525050565b60006020820190506115906000830184611459565b92915050565b600060208201905081810360008301526115af816114da565b9050919050565b600060208201905081810360008301526115cf816114fd565b9050919050565b600060208201905081810360008301526115f08184611520565b905092915050565b600060208201905061160d600083018461156c565b92915050565b6000604082019050611628600083018561156c565b818103602083015261163a81846114a1565b90509392505050565b600061164d61165e565b905061165982826117aa565b919050565b6000604051905090565b600067ffffffffffffffff821115611683576116826118b1565b5b61168c826118f4565b9050602081019050919050565b600081519050919050565b600082825260208201905092915050565b600082825260208201905092915050565b60006116d18261172c565b91506116dc8361172c565b9250828210156116ef576116ee611824565b5b828203905092915050565b60006117058261170c565b9050919050565b600073ffffffffffffffffffffffffffffffffffffffff82169050919050565b6000819050919050565b82818337600083830152505050565b60005b83811015611763578082015181840152602081019050611748565b83811115611772576000848401525b50505050565b6000600282049050600182168061179057607f821691505b602082108114156117a4576117a3611853565b5b50919050565b6117b3826118f4565b810181811067ffffffffffffffff821117156117d2576117d16118b1565b5b80604052505050565b60006117e68261172c565b91507fffffffffffffffffffffffffffffffffffffffffffffffffffffffffffffffff82141561181957611818611824565b5b600182019050919050565b7f4e487b7100000000000000000000000000000000000000000000000000000000600052601160045260246000fd5b7f4e487b7100000000000000000000000000000000000000000000000000000000600052602260045260246000fd5b7f4e487b7100000000000000000000000000000000000000000000000000000000600052603260045260246000fd5b7f4e487b7100000000000000000000000000000000000000000000000000000000600052604160045260246000fd5b600080fd5b600080fd5b600080fd5b600080fd5b6000601f19601f8301169050919050565b7f796f75206861766520746f20646f6e617465206d6f7265207468616e20302e3060008201527f3120455448210000000000000000000000000000000000000000000000000000602082015250565b7f596f7520646f206e6f74206861766520746865206d6f737420766f746573207460008201527f68697320726f756e64203a280000000000000000000000000000000000000000602082015250565b6119ac816116fa565b81146119b757600080fd5b50565b6119c38161172c565b81146119ce57600080fd5b5056fea2646970667358221220eb472f29a95d61a10775703d1b592f9e06677517d7ff1b722d9ff35106ebcb9264736f6c63430008070033",
  "immutableReferences": {},
  "source": "// SPDX-License-Identifier: MIT\r\npragma solidity 0.8.7;\r\n\r\ncontract Charity {\r\n\r\n    struct Request{\r\n        uint256 amount_requested;\r\n        string proof;\r\n    }\r\n\r\n\r\n    address[] public donors; // entire history of donators\r\n    mapping(address => uint256) public donatedAmount; // donor to donated amount mapping\r\n    uint256 lastVoteEndTime ;\r\n    address[] public requesters; // entire history of requestors\r\n    mapping(address => Request) public requests; // requestor to request mapping\r\n    mapping(address => address) public donorVote; // donor to request mapping\r\n    mapping(address => address[]) public requestorDonors; // requestor to donors mapping\r\n    \r\n    constructor() {\r\n        lastVoteEndTime = block.timestamp;\r\n    }\r\n    \r\n    function donate() public payable{\r\n        require(msg.value > 0.01 ether, 'you have to donate more than 0.01 ETH!');\r\n        donors.push(msg.sender);\r\n        donatedAmount[msg.sender] = msg.value;\r\n    }\r\n\r\n\r\n    modifier checkForStaleRequest() {\r\n        _;\r\n        if(block.timestamp - lastVoteEndTime > 48 hours) {\r\n            purgeRequest(getWinningRequestAddress());\r\n        }\r\n    }\r\n\r\n    function purgeRequest(address requester) private {\r\n        delete requests[requester];\r\n    } \r\n\r\n\r\n    function purgeDonors(address requestor) private {\r\n        address[] memory currentDonors = requestorDonors[requestor];\r\n        if (currentDonors.length > 0) {\r\n            for (uint i = 0; i < currentDonors.length; i++) {\r\n                delete donatedAmount[currentDonors[i]];\r\n                delete donorVote[currentDonors[i]];\r\n            }\r\n        }\r\n        delete requestorDonors[requestor];\r\n    }\r\n\r\n\r\n    function new_request(uint256 requested_amount, string memory _proof) external {\r\n        require(requests[msg.sender].amount_requested == 0); // the person should not have put up a request before\r\n        Request memory request = Request({ amount_requested: requested_amount, proof: _proof});\r\n        requests[msg.sender] = request;\r\n        requesters.push(msg.sender);\r\n        // if (!requestMapping[msg.sender]) {\r\n        //     requestMapping[msg.sender] = request;\r\n        //     requesters.push(msg.sender);\r\n        // }\r\n    }\r\n\r\n    function voteForRequest(address requester_addr) public {\r\n        require(requests[requester_addr].amount_requested != 0); // ensure that request for the corresponding requestor exists\r\n        require(donorVote[msg.sender] == address(0)); // check that donor has not voted for anyone yet\r\n        donorVote[msg.sender] = requester_addr; // add voting for donor\r\n        requestorDonors[requester_addr].push(msg.sender); // add donor to the requestors map\r\n    }\r\n\r\n    function getRequestVoteCount(address requester) public view returns (uint256) {\r\n        return requestorDonors[requester].length;\r\n    }\r\n\r\n\r\n    // TODO\r\n    function getRequestDetails(address requester) public view returns (uint256, string memory) {\r\n            Request memory request = requests[requester];\r\n            return (request.amount_requested, request.proof);\r\n    }\r\n\r\n    function getWinningRequest() public view returns(Request memory) {\r\n        return requests[getWinningRequestAddress()];\r\n    }\r\n\r\n    function getWinningRequestAddress() public view returns(address) {\r\n        uint highestDonors = 0;\r\n        address winningRequestAddr;\r\n        for (uint i = 0; i < requesters.length; i++) {\r\n            address[] memory requestDonors = requestorDonors[requesters[i]];\r\n            if (requestDonors.length > highestDonors) {\r\n                highestDonors = requestDonors.length;\r\n                winningRequestAddr = requesters[i];\r\n            } \r\n        }\r\n        require(winningRequestAddr != address(0));\r\n        return winningRequestAddr;\r\n    }\r\n\r\n    function withdraw() external {\r\n        require(block.timestamp - lastVoteEndTime > 24 hours);\r\n        address winningAddress =  getWinningRequestAddress();\r\n        require(getWinningRequestAddress() == msg.sender, 'You do not have the most votes this round :('); \r\n        uint256 requestedAmount = requests[winningAddress].amount_requested;\r\n        if(address(this).balance > requestedAmount) {\r\n            payable(msg.sender).transfer(requestedAmount);\r\n        }else {\r\n            payable(msg.sender).transfer(address(this).balance);\r\n        }\r\n        purgeRequest(winningAddress);\r\n        purgeDonors(winningAddress);\r\n    }\r\n    \r\n}",
  "sourcePath": "g:/EE4032/contracts/Charity.sol",
  "compiler": {
    "name": "solc",
    "version": "0.8.7+commit.e28d00a7.Emscripten.clang"
  },
  "schemaVersion": "3.4.1",
  "updatedAt": "2021-08-30T14:53:24.469Z",
  "networkType": "ethereum",
  "devdoc": {
    "kind": "dev",
    "methods": {},
    "version": 1
  },
  "userdoc": {
    "kind": "user",
    "methods": {},
    "version": 1
  }
}