{
  "contractName": "Charity",
  "abi": [
    {
      "inputs": [],
      "stateMutability": "nonpayable",
      "type": "constructor"
    },
    {
      "inputs": [
        {
          "internalType": "address",
          "name": "",
          "type": "address"
        }
      ],
      "name": "donatedAmount",
      "outputs": [
        {
          "internalType": "uint256",
          "name": "",
          "type": "uint256"
        }
      ],
      "stateMutability": "view",
      "type": "function"
    },
    {
      "inputs": [
        {
          "internalType": "address",
          "name": "",
          "type": "address"
        }
      ],
      "name": "donorVote",
      "outputs": [
        {
          "internalType": "address",
          "name": "",
          "type": "address"
        }
      ],
      "stateMutability": "view",
      "type": "function"
    },
    {
      "inputs": [
        {
          "internalType": "uint256",
          "name": "",
          "type": "uint256"
        }
      ],
      "name": "donors",
      "outputs": [
        {
          "internalType": "address",
          "name": "",
          "type": "address"
        }
      ],
      "stateMutability": "view",
      "type": "function"
    },
    {
      "inputs": [],
      "name": "lastVoteEndTime",
      "outputs": [
        {
          "internalType": "uint256",
          "name": "",
          "type": "uint256"
        }
      ],
      "stateMutability": "view",
      "type": "function"
    },
    {
      "inputs": [
        {
          "internalType": "uint256",
          "name": "",
          "type": "uint256"
        }
      ],
      "name": "requesters",
      "outputs": [
        {
          "internalType": "address",
          "name": "",
          "type": "address"
        }
      ],
      "stateMutability": "view",
      "type": "function"
    },
    {
      "inputs": [
        {
          "internalType": "address",
          "name": "",
          "type": "address"
        },
        {
          "internalType": "uint256",
          "name": "",
          "type": "uint256"
        }
      ],
      "name": "requestorDonors",
      "outputs": [
        {
          "internalType": "address",
          "name": "",
          "type": "address"
        }
      ],
      "stateMutability": "view",
      "type": "function"
    },
    {
      "inputs": [
        {
          "internalType": "address",
          "name": "",
          "type": "address"
        }
      ],
      "name": "requests",
      "outputs": [
        {
          "internalType": "address",
          "name": "requester",
          "type": "address"
        },
        {
          "internalType": "uint256",
          "name": "amount_requested",
          "type": "uint256"
        },
        {
          "internalType": "string",
          "name": "proof",
          "type": "string"
        }
      ],
      "stateMutability": "view",
      "type": "function"
    },
    {
      "inputs": [],
      "name": "donate",
      "outputs": [],
      "stateMutability": "payable",
      "type": "function"
    },
    {
      "inputs": [],
      "name": "getNumberOfRequests",
      "outputs": [
        {
          "internalType": "uint256",
          "name": "",
          "type": "uint256"
        }
      ],
      "stateMutability": "view",
      "type": "function"
    },
    {
      "inputs": [
        {
          "internalType": "uint256",
          "name": "requested_amount",
          "type": "uint256"
        },
        {
          "internalType": "string",
          "name": "_proof",
          "type": "string"
        }
      ],
      "name": "new_request",
      "outputs": [],
      "stateMutability": "nonpayable",
      "type": "function"
    },
    {
      "inputs": [
        {
          "internalType": "address",
          "name": "requester_addr",
          "type": "address"
        }
      ],
      "name": "voteForRequest",
      "outputs": [],
      "stateMutability": "nonpayable",
      "type": "function"
    },
    {
      "inputs": [
        {
          "internalType": "address",
          "name": "requester",
          "type": "address"
        }
      ],
      "name": "getRequestVoteCount",
      "outputs": [
        {
          "internalType": "uint256",
          "name": "",
          "type": "uint256"
        }
      ],
      "stateMutability": "view",
      "type": "function"
    },
    {
      "inputs": [],
      "name": "getLastVoteEndTime",
      "outputs": [
        {
          "internalType": "uint256",
          "name": "",
          "type": "uint256"
        }
      ],
      "stateMutability": "view",
      "type": "function"
    },
    {
      "inputs": [],
      "name": "getRequests",
      "outputs": [
        {
          "components": [
            {
              "internalType": "address",
              "name": "requester",
              "type": "address"
            },
            {
              "internalType": "uint256",
              "name": "amount_requested",
              "type": "uint256"
            },
            {
              "internalType": "string",
              "name": "proof",
              "type": "string"
            },
            {
              "internalType": "uint256",
              "name": "votes",
              "type": "uint256"
            }
          ],
          "internalType": "struct Charity.ReturnedRequestData[]",
          "name": "",
          "type": "tuple[]"
        }
      ],
      "stateMutability": "view",
      "type": "function"
    },
    {
      "inputs": [
        {
          "internalType": "address",
          "name": "requester",
          "type": "address"
        }
      ],
      "name": "getRequestDetails",
      "outputs": [
        {
          "internalType": "uint256",
          "name": "",
          "type": "uint256"
        },
        {
          "internalType": "string",
          "name": "",
          "type": "string"
        }
      ],
      "stateMutability": "view",
      "type": "function"
    },
    {
      "inputs": [],
      "name": "getWinningRequest",
      "outputs": [
        {
          "components": [
            {
              "internalType": "address",
              "name": "requester",
              "type": "address"
            },
            {
              "internalType": "uint256",
              "name": "amount_requested",
              "type": "uint256"
            },
            {
              "internalType": "string",
              "name": "proof",
              "type": "string"
            }
          ],
          "internalType": "struct Charity.Request",
          "name": "",
          "type": "tuple"
        }
      ],
      "stateMutability": "view",
      "type": "function"
    },
    {
      "inputs": [],
      "name": "getWinningRequestAddress",
      "outputs": [
        {
          "internalType": "address",
          "name": "",
          "type": "address"
        }
      ],
      "stateMutability": "view",
      "type": "function"
    },
    {
      "inputs": [],
      "name": "withdraw",
      "outputs": [],
      "stateMutability": "nonpayable",
      "type": "function"
    }
  ],
  "bytecode": "0x608060405234801561001057600080fd5b5042600281905550612724806100276000396000f3fe6080604052600436106101095760003560e01c806374adad1d11610095578063b349885b11610064578063b349885b14610395578063db4208fa146103d3578063e05646f314610410578063ed88c68e14610439578063fb8763441461044357610109565b806374adad1d146102d55780637bc6a473146103145780638813ce121461033f578063973884971461036a57610109565b80633f2fb8cc116100dc5780633f2fb8cc146101ca578063499d928d146101f35780634abfa163146102305780635e1a6c171461026d57806370661719146102aa57610109565b8063022f63881461010e5780631c0b95581461014b57806326d6cd4c146101765780633ccfd60b146101b3575b600080fd5b34801561011a57600080fd5b5061013560048036038101906101309190611cad565b61046e565b60405161014291906121bc565b60405180910390f35b34801561015757600080fd5b50610160610486565b60405161016d91906121bc565b60405180910390f35b34801561018257600080fd5b5061019d60048036038101906101989190611cad565b610490565b6040516101aa91906121bc565b60405180910390f35b3480156101bf57600080fd5b506101c86104dc565b005b3480156101d657600080fd5b506101f160048036038101906101ec9190611d47565b6106a8565b005b3480156101ff57600080fd5b5061021a60048036038101906102159190611cad565b6108a4565b604051610227919061205f565b60405180910390f35b34801561023c57600080fd5b5061025760048036038101906102529190611d1a565b6108d7565b604051610264919061205f565b60405180910390f35b34801561027957600080fd5b50610294600480360381019061028f9190611d1a565b610916565b6040516102a1919061205f565b60405180910390f35b3480156102b657600080fd5b506102bf610955565b6040516102cc91906121bc565b60405180910390f35b3480156102e157600080fd5b506102fc60048036038101906102f79190611cad565b61095b565b60405161030b9392919061207a565b60405180910390f35b34801561032057600080fd5b50610329610a2d565b604051610336919061205f565b60405180910390f35b34801561034b57600080fd5b50610354610bf5565b60405161036191906120b8565b60405180910390f35b34801561037657600080fd5b5061037f61113f565b60405161038c91906121bc565b60405180910390f35b3480156103a157600080fd5b506103bc60048036038101906103b79190611cad565b61114c565b6040516103ca9291906121d7565b60405180910390f35b3480156103df57600080fd5b506103fa60048036038101906103f59190611cda565b6112a4565b604051610407919061205f565b60405180910390f35b34801561041c57600080fd5b5061043760048036038101906104329190611cad565b6112f2565b005b610441611590565b005b34801561044f57600080fd5b506104586116ab565b604051610465919061219a565b60405180910390f35b60016020528060005260406000206000915090505481565b6000600254905090565b6000600660008373ffffffffffffffffffffffffffffffffffffffff1673ffffffffffffffffffffffffffffffffffffffff168152602001908152602001600020805490509050919050565b62015180600254426104ee9190612319565b1161052e576040517f08c379a0000000000000000000000000000000000000000000000000000000008152600401610525906120fa565b60405180910390fd5b6000610538610a2d565b90503373ffffffffffffffffffffffffffffffffffffffff16610559610a2d565b73ffffffffffffffffffffffffffffffffffffffff16146105af576040517f08c379a00000000000000000000000000000000000000000000000000000000081526004016105a69061217a565b60405180910390fd5b6000600460008373ffffffffffffffffffffffffffffffffffffffff1673ffffffffffffffffffffffffffffffffffffffff1681526020019081526020016000206001015490508047111561064a573373ffffffffffffffffffffffffffffffffffffffff166108fc829081150290604051600060405180830381858888f19350505050158015610644573d6000803e3d6000fd5b50610692565b3373ffffffffffffffffffffffffffffffffffffffff166108fc479081150290604051600060405180830381858888f19350505050158015610690573d6000803e3d6000fd5b505b61069b826117fb565b6106a48261187f565b5050565b6000600460003373ffffffffffffffffffffffffffffffffffffffff1673ffffffffffffffffffffffffffffffffffffffff168152602001908152602001600020600101541461072d576040517f08c379a00000000000000000000000000000000000000000000000000000000081526004016107249061215a565b60405180910390fd5b600060405180606001604052803373ffffffffffffffffffffffffffffffffffffffff16815260200184815260200183815250905080600460003373ffffffffffffffffffffffffffffffffffffffff1673ffffffffffffffffffffffffffffffffffffffff16815260200190815260200160002060008201518160000160006101000a81548173ffffffffffffffffffffffffffffffffffffffff021916908373ffffffffffffffffffffffffffffffffffffffff16021790555060208201518160010155604082015181600201908051906020019061080f929190611a9a565b509050506003339080600181540180825580915050600190039060005260206000200160009091909190916101000a81548173ffffffffffffffffffffffffffffffffffffffff021916908373ffffffffffffffffffffffffffffffffffffffff160217905550506201fa40600254426108899190612319565b11156108a05761089f61089a610a2d565b6117fb565b5b5050565b60056020528060005260406000206000915054906101000a900473ffffffffffffffffffffffffffffffffffffffff1681565b600081815481106108e757600080fd5b906000526020600020016000915054906101000a900473ffffffffffffffffffffffffffffffffffffffff1681565b6003818154811061092657600080fd5b906000526020600020016000915054906101000a900473ffffffffffffffffffffffffffffffffffffffff1681565b60025481565b60046020528060005260406000206000915090508060000160009054906101000a900473ffffffffffffffffffffffffffffffffffffffff16908060010154908060020180546109aa906123cb565b80601f01602080910402602001604051908101604052809291908181526020018280546109d6906123cb565b8015610a235780601f106109f857610100808354040283529160200191610a23565b820191906000526020600020905b815481529060010190602001808311610a0657829003601f168201915b5050505050905083565b60008060009050600080600090505b600380549050811015610bb25760006006600060038481548110610a6357610a626124d5565b5b9060005260206000200160009054906101000a900473ffffffffffffffffffffffffffffffffffffffff1673ffffffffffffffffffffffffffffffffffffffff1673ffffffffffffffffffffffffffffffffffffffff168152602001908152602001600020805480602002602001604051908101604052809291908181526020018280548015610b4857602002820191906000526020600020905b8160009054906101000a900473ffffffffffffffffffffffffffffffffffffffff1673ffffffffffffffffffffffffffffffffffffffff1681526020019060010190808311610afe575b505050505090508381511115610b9e578051935060038281548110610b7057610b6f6124d5565b5b9060005260206000200160009054906101000a900473ffffffffffffffffffffffffffffffffffffffff1692505b508080610baa9061242e565b915050610a3c565b50600073ffffffffffffffffffffffffffffffffffffffff168173ffffffffffffffffffffffffffffffffffffffff161415610bed57600080fd5b809250505090565b60606000610c0161113f565b905060008167ffffffffffffffff811115610c1f57610c1e612504565b5b604051908082528060200260200182016040528015610c5857816020015b610c45611b20565b815260200190600190039081610c3d5790505b5090506000805b83811015610f44576000805b8451811015610d82576004600060038581548110610c8c57610c8b6124d5565b5b9060005260206000200160009054906101000a900473ffffffffffffffffffffffffffffffffffffffff1673ffffffffffffffffffffffffffffffffffffffff1673ffffffffffffffffffffffffffffffffffffffff16815260200190815260200160002060000160009054906101000a900473ffffffffffffffffffffffffffffffffffffffff1673ffffffffffffffffffffffffffffffffffffffff16858281518110610d3e57610d3d6124d5565b5b60200260200101516000015173ffffffffffffffffffffffffffffffffffffffff161415610d6f5760019150610d82565b8080610d7a9061242e565b915050610c6b565b5080610f30576004600060038481548110610da057610d9f6124d5565b5b9060005260206000200160009054906101000a900473ffffffffffffffffffffffffffffffffffffffff1673ffffffffffffffffffffffffffffffffffffffff1673ffffffffffffffffffffffffffffffffffffffff1681526020019081526020016000206040518060600160405290816000820160009054906101000a900473ffffffffffffffffffffffffffffffffffffffff1673ffffffffffffffffffffffffffffffffffffffff1673ffffffffffffffffffffffffffffffffffffffff16815260200160018201548152602001600282018054610e80906123cb565b80601f0160208091040260200160405190810160405280929190818152602001828054610eac906123cb565b8015610ef95780601f10610ece57610100808354040283529160200191610ef9565b820191906000526020600020905b815481529060010190602001808311610edc57829003601f168201915b505050505081525050848481518110610f1557610f146124d5565b5b6020026020010181905250600183610f2d91906122c3565b92505b508080610f3c9061242e565b915050610c5f565b506000825167ffffffffffffffff811115610f6257610f61612504565b5b604051908082528060200260200182016040528015610f9b57816020015b610f88611b57565b815260200190600190039081610f805790505b50905060005b835181101561113457838181518110610fbd57610fbc6124d5565b5b602002602001015160000151828281518110610fdc57610fdb6124d5565b5b60200260200101516000019073ffffffffffffffffffffffffffffffffffffffff16908173ffffffffffffffffffffffffffffffffffffffff168152505083818151811061102d5761102c6124d5565b5b60200260200101516020015182828151811061104c5761104b6124d5565b5b6020026020010151602001818152505083818151811061106f5761106e6124d5565b5b60200260200101516040015182828151811061108e5761108d6124d5565b5b602002602001015160400181905250600660008583815181106110b4576110b36124d5565b5b60200260200101516000015173ffffffffffffffffffffffffffffffffffffffff1673ffffffffffffffffffffffffffffffffffffffff16815260200190815260200160002080549050828281518110611111576111106124d5565b5b60200260200101516060018181525050808061112c9061242e565b915050610fa1565b508094505050505090565b6000600380549050905090565b600060606000600460008573ffffffffffffffffffffffffffffffffffffffff1673ffffffffffffffffffffffffffffffffffffffff1681526020019081526020016000206040518060600160405290816000820160009054906101000a900473ffffffffffffffffffffffffffffffffffffffff1673ffffffffffffffffffffffffffffffffffffffff1673ffffffffffffffffffffffffffffffffffffffff1681526020016001820154815260200160028201805461120c906123cb565b80601f0160208091040260200160405190810160405280929190818152602001828054611238906123cb565b80156112855780601f1061125a57610100808354040283529160200191611285565b820191906000526020600020905b81548152906001019060200180831161126857829003601f168201915b5050505050815250509050806020015181604001519250925050915091565b600660205281600052604060002081815481106112c057600080fd5b906000526020600020016000915091509054906101000a900473ffffffffffffffffffffffffffffffffffffffff1681565b6000600460008373ffffffffffffffffffffffffffffffffffffffff1673ffffffffffffffffffffffffffffffffffffffff168152602001908152602001600020600101541415611378576040517f08c379a000000000000000000000000000000000000000000000000000000000815260040161136f906120da565b60405180910390fd5b600073ffffffffffffffffffffffffffffffffffffffff16600560003373ffffffffffffffffffffffffffffffffffffffff1673ffffffffffffffffffffffffffffffffffffffff16815260200190815260200160002060009054906101000a900473ffffffffffffffffffffffffffffffffffffffff1673ffffffffffffffffffffffffffffffffffffffff1614611446576040517f08c379a000000000000000000000000000000000000000000000000000000000815260040161143d9061213a565b60405180910390fd5b80600560003373ffffffffffffffffffffffffffffffffffffffff1673ffffffffffffffffffffffffffffffffffffffff16815260200190815260200160002060006101000a81548173ffffffffffffffffffffffffffffffffffffffff021916908373ffffffffffffffffffffffffffffffffffffffff160217905550600660008273ffffffffffffffffffffffffffffffffffffffff1673ffffffffffffffffffffffffffffffffffffffff168152602001908152602001600020339080600181540180825580915050600190039060005260206000200160009091909190916101000a81548173ffffffffffffffffffffffffffffffffffffffff021916908373ffffffffffffffffffffffffffffffffffffffff1602179055506201fa40600254426115769190612319565b111561158d5761158c611587610a2d565b6117fb565b5b50565b662386f26fc1000034116115d9576040517f08c379a00000000000000000000000000000000000000000000000000000000081526004016115d09061211a565b60405180910390fd5b6000339080600181540180825580915050600190039060005260206000200160009091909190916101000a81548173ffffffffffffffffffffffffffffffffffffffff021916908373ffffffffffffffffffffffffffffffffffffffff16021790555034600160003373ffffffffffffffffffffffffffffffffffffffff1673ffffffffffffffffffffffffffffffffffffffff168152602001908152602001600020819055506201fa40600254426116929190612319565b11156116a9576116a86116a3610a2d565b6117fb565b5b565b6116b3611b20565b600460006116bf610a2d565b73ffffffffffffffffffffffffffffffffffffffff1673ffffffffffffffffffffffffffffffffffffffff1681526020019081526020016000206040518060600160405290816000820160009054906101000a900473ffffffffffffffffffffffffffffffffffffffff1673ffffffffffffffffffffffffffffffffffffffff1673ffffffffffffffffffffffffffffffffffffffff16815260200160018201548152602001600282018054611774906123cb565b80601f01602080910402602001604051908101604052809291908181526020018280546117a0906123cb565b80156117ed5780601f106117c2576101008083540402835291602001916117ed565b820191906000526020600020905b8154815290600101906020018083116117d057829003601f168201915b505050505081525050905090565b600460008273ffffffffffffffffffffffffffffffffffffffff1673ffffffffffffffffffffffffffffffffffffffff168152602001908152602001600020600080820160006101000a81549073ffffffffffffffffffffffffffffffffffffffff0219169055600182016000905560028201600061187a9190611b95565b505050565b6000600660008373ffffffffffffffffffffffffffffffffffffffff1673ffffffffffffffffffffffffffffffffffffffff16815260200190815260200160002080548060200260200160405190810160405280929190818152602001828054801561194057602002820191906000526020600020905b8160009054906101000a900473ffffffffffffffffffffffffffffffffffffffff1673ffffffffffffffffffffffffffffffffffffffff16815260200190600101908083116118f6575b50505050509050600081511115611a4b5760005b8151811015611a495760016000838381518110611974576119736124d5565b5b602002602001015173ffffffffffffffffffffffffffffffffffffffff1673ffffffffffffffffffffffffffffffffffffffff16815260200190815260200160002060009055600560008383815181106119d1576119d06124d5565b5b602002602001015173ffffffffffffffffffffffffffffffffffffffff1673ffffffffffffffffffffffffffffffffffffffff16815260200190815260200160002060006101000a81549073ffffffffffffffffffffffffffffffffffffffff02191690558080611a419061242e565b915050611954565b505b600660008373ffffffffffffffffffffffffffffffffffffffff1673ffffffffffffffffffffffffffffffffffffffff1681526020019081526020016000206000611a969190611bd5565b5050565b828054611aa6906123cb565b90600052602060002090601f016020900481019282611ac85760008555611b0f565b82601f10611ae157805160ff1916838001178555611b0f565b82800160010185558215611b0f579182015b82811115611b0e578251825591602001919060010190611af3565b5b509050611b1c9190611bf6565b5090565b6040518060600160405280600073ffffffffffffffffffffffffffffffffffffffff16815260200160008152602001606081525090565b6040518060800160405280600073ffffffffffffffffffffffffffffffffffffffff1681526020016000815260200160608152602001600081525090565b508054611ba1906123cb565b6000825580601f10611bb35750611bd2565b601f016020900490600052602060002090810190611bd19190611bf6565b5b50565b5080546000825590600052602060002090810190611bf39190611bf6565b50565b5b80821115611c0f576000816000905550600101611bf7565b5090565b6000611c26611c218461222c565b612207565b905082815260208101848484011115611c4257611c41612538565b5b611c4d848285612389565b509392505050565b600081359050611c64816126c0565b92915050565b600082601f830112611c7f57611c7e612533565b5b8135611c8f848260208601611c13565b91505092915050565b600081359050611ca7816126d7565b92915050565b600060208284031215611cc357611cc2612542565b5b6000611cd184828501611c55565b91505092915050565b60008060408385031215611cf157611cf0612542565b5b6000611cff85828601611c55565b9250506020611d1085828601611c98565b9150509250929050565b600060208284031215611d3057611d2f612542565b5b6000611d3e84828501611c98565b91505092915050565b60008060408385031215611d5e57611d5d612542565b5b6000611d6c85828601611c98565b925050602083013567ffffffffffffffff811115611d8d57611d8c61253d565b5b611d9985828601611c6a565b9150509250929050565b6000611daf8383611fde565b905092915050565b611dc08161234d565b82525050565b611dcf8161234d565b82525050565b6000611de08261226d565b611dea8185612290565b935083602082028501611dfc8561225d565b8060005b85811015611e385784840389528151611e198582611da3565b9450611e2483612283565b925060208a01995050600181019050611e00565b50829750879550505050505092915050565b6000611e5582612278565b611e5f81856122a1565b9350611e6f818560208601612398565b611e7881612547565b840191505092915050565b6000611e8e82612278565b611e9881856122b2565b9350611ea8818560208601612398565b611eb181612547565b840191505092915050565b6000611ec96016836122b2565b9150611ed482612558565b602082019050919050565b6000611eec601c836122b2565b9150611ef782612581565b602082019050919050565b6000611f0f6026836122b2565b9150611f1a826125aa565b604082019050919050565b6000611f326016836122b2565b9150611f3d826125f9565b602082019050919050565b6000611f556025836122b2565b9150611f6082612622565b604082019050919050565b6000611f78602c836122b2565b9150611f8382612671565b604082019050919050565b6000606083016000830151611fa66000860182611db7565b506020830151611fb96020860182612041565b5060408301518482036040860152611fd18282611e4a565b9150508091505092915050565b6000608083016000830151611ff66000860182611db7565b5060208301516120096020860182612041565b50604083015184820360408601526120218282611e4a565b91505060608301516120366060860182612041565b508091505092915050565b61204a8161237f565b82525050565b6120598161237f565b82525050565b60006020820190506120746000830184611dc6565b92915050565b600060608201905061208f6000830186611dc6565b61209c6020830185612050565b81810360408301526120ae8184611e83565b9050949350505050565b600060208201905081810360008301526120d28184611dd5565b905092915050565b600060208201905081810360008301526120f381611ebc565b9050919050565b6000602082019050818103600083015261211381611edf565b9050919050565b6000602082019050818103600083015261213381611f02565b9050919050565b6000602082019050818103600083015261215381611f25565b9050919050565b6000602082019050818103600083015261217381611f48565b9050919050565b6000602082019050818103600083015261219381611f6b565b9050919050565b600060208201905081810360008301526121b48184611f8e565b905092915050565b60006020820190506121d16000830184612050565b92915050565b60006040820190506121ec6000830185612050565b81810360208301526121fe8184611e83565b90509392505050565b6000612211612222565b905061221d82826123fd565b919050565b6000604051905090565b600067ffffffffffffffff82111561224757612246612504565b5b61225082612547565b9050602081019050919050565b6000819050602082019050919050565b600081519050919050565b600081519050919050565b6000602082019050919050565b600082825260208201905092915050565b600082825260208201905092915050565b600082825260208201905092915050565b60006122ce8261237f565b91506122d98361237f565b9250827fffffffffffffffffffffffffffffffffffffffffffffffffffffffffffffffff0382111561230e5761230d612477565b5b828201905092915050565b60006123248261237f565b915061232f8361237f565b92508282101561234257612341612477565b5b828203905092915050565b60006123588261235f565b9050919050565b600073ffffffffffffffffffffffffffffffffffffffff82169050919050565b6000819050919050565b82818337600083830152505050565b60005b838110156123b657808201518184015260208101905061239b565b838111156123c5576000848401525b50505050565b600060028204905060018216806123e357607f821691505b602082108114156123f7576123f66124a6565b5b50919050565b61240682612547565b810181811067ffffffffffffffff8211171561242557612424612504565b5b80604052505050565b60006124398261237f565b91507fffffffffffffffffffffffffffffffffffffffffffffffffffffffffffffffff82141561246c5761246b612477565b5b600182019050919050565b7f4e487b7100000000000000000000000000000000000000000000000000000000600052601160045260246000fd5b7f4e487b7100000000000000000000000000000000000000000000000000000000600052602260045260246000fd5b7f4e487b7100000000000000000000000000000000000000000000000000000000600052603260045260246000fd5b7f4e487b7100000000000000000000000000000000000000000000000000000000600052604160045260246000fd5b600080fd5b600080fd5b600080fd5b600080fd5b6000601f19601f8301169050919050565b7f7265717565737420646f6573206e6f7420657869737400000000000000000000600082015250565b7f74686520726f756e6420686173206e6f7420656e646564207965742100000000600082015250565b7f796f75206861766520746f20646f6e617465206d6f7265207468616e20302e3060008201527f3120455448210000000000000000000000000000000000000000000000000000602082015250565b7f796f75206861766520616c726561647920766f74656400000000000000000000600082015250565b7f596f7520616c726561647920686176652061207375626d69747465642072657160008201527f7565737421000000000000000000000000000000000000000000000000000000602082015250565b7f596f7520646f206e6f74206861766520746865206d6f737420766f746573207460008201527f68697320726f756e64203a280000000000000000000000000000000000000000602082015250565b6126c98161234d565b81146126d457600080fd5b50565b6126e08161237f565b81146126eb57600080fd5b5056fea264697066735822122014fa8f770520bc99300dc7658dfbb27474145645737b66a16f164ec63a5c624c64736f6c63430008070033",
  "immutableReferences": {},
  "source": "// SPDX-License-Identifier: MIT\r\npragma solidity 0.8.7;\r\n\r\ncontract Charity {\r\n\r\n    struct Request{\r\n        address requester;\r\n        uint256 amount_requested;\r\n        string proof;\r\n    }\r\n\r\n    struct ReturnedRequestData{\r\n        address requester;\r\n        uint256 amount_requested;\r\n        string proof;\r\n        uint256 votes;\r\n    }\r\n\r\n    address[] public donors; // entire history of donators\r\n    mapping(address => uint256) public donatedAmount; // donor to donated amount mapping\r\n    uint256 public lastVoteEndTime ;\r\n    address[] public requesters; // entire history of requestors\r\n    mapping(address => Request) public requests; // requestor to request mapping\r\n    mapping(address => address) public donorVote; // donor to request mapping\r\n    mapping(address => address[]) public requestorDonors; // requestor to donors mapping\r\n    \r\n    constructor() {\r\n        lastVoteEndTime = block.timestamp;\r\n    }\r\n    \r\n    function donate() external payable checkForStaleRequest{\r\n        require(msg.value > 0.01 ether, 'you have to donate more than 0.01 ETH!');\r\n        donors.push(msg.sender);\r\n        donatedAmount[msg.sender] = msg.value;\r\n    }\r\n\r\n\r\n    modifier checkForStaleRequest() {\r\n        _;\r\n        if(block.timestamp - lastVoteEndTime > 36 hours) {\r\n            purgeRequest(getWinningRequestAddress());\r\n        }\r\n    }\r\n\r\n    function getNumberOfRequests() public view returns(uint256){\r\n        return requesters.length;\r\n    }\r\n\r\n    function purgeRequest(address requester) private {\r\n        delete requests[requester];\r\n    } \r\n\r\n\r\n    function purgeDonors(address requestor) private {\r\n        address[] memory currentDonors = requestorDonors[requestor];\r\n        if (currentDonors.length > 0) {\r\n            for (uint i = 0; i < currentDonors.length; i++) {\r\n                delete donatedAmount[currentDonors[i]];\r\n                delete donorVote[currentDonors[i]];\r\n            }\r\n        }\r\n        delete requestorDonors[requestor];\r\n    }\r\n\r\n\r\n    function new_request(uint256 requested_amount, string memory _proof) external checkForStaleRequest{\r\n        require(requests[msg.sender].amount_requested == 0, \"You already have a submitted request!\"); // the person should not have put up a request before\r\n        Request memory request = Request({ requester: msg.sender, amount_requested: requested_amount, proof: _proof});\r\n        requests[msg.sender] = request;\r\n        requesters.push(msg.sender);\r\n        // if (!requestMapping[msg.sender]) {\r\n        //     requestMapping[msg.sender] = request;\r\n        //     requesters.push(msg.sender);\r\n        // }\r\n    }\r\n\r\n    function voteForRequest(address requester_addr) external checkForStaleRequest{\r\n        require(requests[requester_addr].amount_requested != 0, \"request does not exist\"); // ensure that request for the corresponding requestor exists\r\n        require(donorVote[msg.sender] == address(0), \"you have already voted\"); // check that donor has not voted for anyone yet\r\n        donorVote[msg.sender] = requester_addr; // add voting for donor\r\n        requestorDonors[requester_addr].push(msg.sender); // add donor to the requestors map\r\n    }\r\n\r\n    function getRequestVoteCount(address requester) public view returns (uint256) {\r\n        return requestorDonors[requester].length;\r\n    }\r\n\r\n\r\n    function getLastVoteEndTime() public view returns(uint256) {\r\n        return lastVoteEndTime;\r\n    }\r\n\r\n    // Todo remove duplicate requestors fom the map i.e keep track of repeated reqs and dont show. Had to be unique\r\n    function getRequests() public view returns (ReturnedRequestData[] memory) {\r\n        uint n = getNumberOfRequests();\r\n        Request[] memory reqs = new Request[](n);\r\n        uint x = 0; \r\n        for(uint i = 0; i < n; i++) {\r\n            bool isFound = false;\r\n            for (uint j = 0; j < reqs.length; j++) {\r\n                if (reqs[j].requester == requests[requesters[i]].requester) {\r\n                    isFound = true;\r\n                    break;\r\n                }\r\n            }\r\n            if (!isFound) {\r\n                reqs[x] = requests[requesters[i]];\r\n                x += 1;\r\n            }\r\n        }\r\n\r\n        ReturnedRequestData[] memory ret = new ReturnedRequestData[](reqs.length);\r\n        for(uint256 i = 0; i < reqs.length; i++) {\r\n            ret[i].requester = reqs[i].requester;\r\n            ret[i].amount_requested = reqs[i].amount_requested;\r\n            ret[i].proof = reqs[i].proof;\r\n            ret[i].votes = requestorDonors[reqs[i].requester].length;\r\n        }\r\n        \r\n        return ret;\r\n    }\r\n\r\n    function getRequestDetails(address requester) public view returns (uint256, string memory) {\r\n            Request memory request = requests[requester];\r\n            return (request.amount_requested, request.proof);\r\n    }\r\n\r\n    function getWinningRequest() public view returns(Request memory) {\r\n        return requests[getWinningRequestAddress()];\r\n    }\r\n\r\n    function getWinningRequestAddress() public view returns(address) {\r\n        uint highestDonors = 0;\r\n        address winningRequestAddr;\r\n        for (uint i = 0; i < requesters.length; i++) {\r\n            address[] memory requestDonors = requestorDonors[requesters[i]];\r\n            if (requestDonors.length > highestDonors) {\r\n                highestDonors = requestDonors.length;\r\n                winningRequestAddr = requesters[i];\r\n            } \r\n        }\r\n        require(winningRequestAddr != address(0));\r\n        return winningRequestAddr;\r\n    }\r\n\r\n    function withdraw() external {\r\n        require(block.timestamp - lastVoteEndTime > 24 hours, \"the round has not ended yet!\");\r\n        address winningAddress =  getWinningRequestAddress();\r\n        require(getWinningRequestAddress() == msg.sender, 'You do not have the most votes this round :('); \r\n        uint256 requestedAmount = requests[winningAddress].amount_requested;\r\n        if(address(this).balance > requestedAmount) {\r\n            payable(msg.sender).transfer(requestedAmount);\r\n        }else {\r\n            payable(msg.sender).transfer(address(this).balance);\r\n        }\r\n        purgeRequest(winningAddress);\r\n        purgeDonors(winningAddress);\r\n    }\r\n    \r\n}",
  "sourcePath": "G:/EE4032/contracts/Charity.sol",
  "compiler": {
    "name": "solc",
    "version": "0.8.7+commit.e28d00a7.Emscripten.clang"
  },
  "schemaVersion": "3.4.1",
  "updatedAt": "2021-09-10T12:31:52.611Z",
  "devdoc": {
    "kind": "dev",
    "methods": {},
    "version": 1
  },
  "userdoc": {
    "kind": "user",
    "methods": {},
    "version": 1
  }
}