{
  "contractName": "Charity",
  "abi": [
    {
      "inputs": [],
      "stateMutability": "nonpayable",
      "type": "constructor"
    },
    {
      "inputs": [
        {
          "internalType": "address",
          "name": "",
          "type": "address"
        }
      ],
      "name": "donatedAmount",
      "outputs": [
        {
          "internalType": "uint256",
          "name": "",
          "type": "uint256"
        }
      ],
      "stateMutability": "view",
      "type": "function",
      "constant": true
    },
    {
      "inputs": [
        {
          "internalType": "address",
          "name": "",
          "type": "address"
        }
      ],
      "name": "donorVote",
      "outputs": [
        {
          "internalType": "address",
          "name": "",
          "type": "address"
        }
      ],
      "stateMutability": "view",
      "type": "function",
      "constant": true
    },
    {
      "inputs": [
        {
          "internalType": "uint256",
          "name": "",
          "type": "uint256"
        }
      ],
      "name": "donors",
      "outputs": [
        {
          "internalType": "address",
          "name": "",
          "type": "address"
        }
      ],
      "stateMutability": "view",
      "type": "function",
      "constant": true
    },
    {
      "inputs": [],
      "name": "lastVoteEndTime",
      "outputs": [
        {
          "internalType": "uint256",
          "name": "",
          "type": "uint256"
        }
      ],
      "stateMutability": "view",
      "type": "function",
      "constant": true
    },
    {
      "inputs": [
        {
          "internalType": "uint256",
          "name": "",
          "type": "uint256"
        }
      ],
      "name": "requesters",
      "outputs": [
        {
          "internalType": "address",
          "name": "",
          "type": "address"
        }
      ],
      "stateMutability": "view",
      "type": "function",
      "constant": true
    },
    {
      "inputs": [
        {
          "internalType": "address",
          "name": "",
          "type": "address"
        },
        {
          "internalType": "uint256",
          "name": "",
          "type": "uint256"
        }
      ],
      "name": "requestorDonors",
      "outputs": [
        {
          "internalType": "address",
          "name": "",
          "type": "address"
        }
      ],
      "stateMutability": "view",
      "type": "function",
      "constant": true
    },
    {
      "inputs": [
        {
          "internalType": "address",
          "name": "",
          "type": "address"
        }
      ],
      "name": "requests",
      "outputs": [
        {
          "internalType": "address",
          "name": "requester",
          "type": "address"
        },
        {
          "internalType": "uint256",
          "name": "amount_requested",
          "type": "uint256"
        },
        {
          "internalType": "string",
          "name": "proof",
          "type": "string"
        }
      ],
      "stateMutability": "view",
      "type": "function",
      "constant": true
    },
    {
      "inputs": [],
      "name": "donate",
      "outputs": [],
      "stateMutability": "payable",
      "type": "function",
      "payable": true
    },
    {
      "inputs": [],
      "name": "getNumberOfRequests",
      "outputs": [
        {
          "internalType": "uint256",
          "name": "",
          "type": "uint256"
        }
      ],
      "stateMutability": "view",
      "type": "function",
      "constant": true
    },
    {
      "inputs": [
        {
          "internalType": "uint256",
          "name": "requested_amount",
          "type": "uint256"
        },
        {
          "internalType": "string",
          "name": "_proof",
          "type": "string"
        }
      ],
      "name": "new_request",
      "outputs": [],
      "stateMutability": "nonpayable",
      "type": "function"
    },
    {
      "inputs": [
        {
          "internalType": "address",
          "name": "requester_addr",
          "type": "address"
        }
      ],
      "name": "voteForRequest",
      "outputs": [],
      "stateMutability": "nonpayable",
      "type": "function"
    },
    {
      "inputs": [
        {
          "internalType": "address",
          "name": "requester",
          "type": "address"
        }
      ],
      "name": "getRequestVoteCount",
      "outputs": [
        {
          "internalType": "uint256",
          "name": "",
          "type": "uint256"
        }
      ],
      "stateMutability": "view",
      "type": "function",
      "constant": true
    },
    {
      "inputs": [],
      "name": "getLastVoteEndTime",
      "outputs": [
        {
          "internalType": "uint256",
          "name": "",
          "type": "uint256"
        }
      ],
      "stateMutability": "view",
      "type": "function",
      "constant": true
    },
    {
      "inputs": [],
      "name": "getRequests",
      "outputs": [
        {
          "components": [
            {
              "internalType": "address",
              "name": "requester",
              "type": "address"
            },
            {
              "internalType": "uint256",
              "name": "amount_requested",
              "type": "uint256"
            },
            {
              "internalType": "string",
              "name": "proof",
              "type": "string"
            },
            {
              "internalType": "uint256",
              "name": "votes",
              "type": "uint256"
            }
          ],
          "internalType": "struct Charity.ReturnedRequestData[]",
          "name": "",
          "type": "tuple[]"
        }
      ],
      "stateMutability": "view",
      "type": "function",
      "constant": true
    },
    {
      "inputs": [
        {
          "internalType": "address",
          "name": "requester",
          "type": "address"
        }
      ],
      "name": "getRequestDetails",
      "outputs": [
        {
          "internalType": "uint256",
          "name": "",
          "type": "uint256"
        },
        {
          "internalType": "string",
          "name": "",
          "type": "string"
        }
      ],
      "stateMutability": "view",
      "type": "function",
      "constant": true
    },
    {
      "inputs": [],
      "name": "getWinningRequest",
      "outputs": [
        {
          "components": [
            {
              "internalType": "address",
              "name": "requester",
              "type": "address"
            },
            {
              "internalType": "uint256",
              "name": "amount_requested",
              "type": "uint256"
            },
            {
              "internalType": "string",
              "name": "proof",
              "type": "string"
            }
          ],
          "internalType": "struct Charity.Request",
          "name": "",
          "type": "tuple"
        }
      ],
      "stateMutability": "view",
      "type": "function",
      "constant": true
    },
    {
      "inputs": [],
      "name": "getWinningRequestAddress",
      "outputs": [
        {
          "internalType": "address",
          "name": "",
          "type": "address"
        }
      ],
      "stateMutability": "view",
      "type": "function",
      "constant": true
    },
    {
      "inputs": [],
      "name": "withdraw",
      "outputs": [],
      "stateMutability": "nonpayable",
      "type": "function"
    }
  ],
  "bytecode": "0x608060405234801561001057600080fd5b50426002819055506127a4806100276000396000f3fe6080604052600436106101095760003560e01c806374adad1d11610095578063b349885b11610064578063b349885b14610395578063db4208fa146103d3578063e05646f314610410578063ed88c68e14610439578063fb8763441461044357610109565b806374adad1d146102d55780637bc6a473146103145780638813ce121461033f578063973884971461036a57610109565b80633f2fb8cc116100dc5780633f2fb8cc146101ca578063499d928d146101f35780634abfa163146102305780635e1a6c171461026d57806370661719146102aa57610109565b8063022f63881461010e5780631c0b95581461014b57806326d6cd4c146101765780633ccfd60b146101b3575b600080fd5b34801561011a57600080fd5b5061013560048036038101906101309190611d2d565b61046e565b604051610142919061223c565b60405180910390f35b34801561015757600080fd5b50610160610486565b60405161016d919061223c565b60405180910390f35b34801561018257600080fd5b5061019d60048036038101906101989190611d2d565b610490565b6040516101aa919061223c565b60405180910390f35b3480156101bf57600080fd5b506101c86104dc565b005b3480156101d657600080fd5b506101f160048036038101906101ec9190611dc7565b6106c2565b005b3480156101ff57600080fd5b5061021a60048036038101906102159190611d2d565b6108c4565b60405161022791906120df565b60405180910390f35b34801561023c57600080fd5b5061025760048036038101906102529190611d9a565b6108f7565b60405161026491906120df565b60405180910390f35b34801561027957600080fd5b50610294600480360381019061028f9190611d9a565b610936565b6040516102a191906120df565b60405180910390f35b3480156102b657600080fd5b506102bf610975565b6040516102cc919061223c565b60405180910390f35b3480156102e157600080fd5b506102fc60048036038101906102f79190611d2d565b61097b565b60405161030b939291906120fa565b60405180910390f35b34801561032057600080fd5b50610329610a4d565b60405161033691906120df565b60405180910390f35b34801561034b57600080fd5b50610354610c15565b6040516103619190612138565b60405180910390f35b34801561037657600080fd5b5061037f61115f565b60405161038c919061223c565b60405180910390f35b3480156103a157600080fd5b506103bc60048036038101906103b79190611d2d565b61116c565b6040516103ca929190612257565b60405180910390f35b3480156103df57600080fd5b506103fa60048036038101906103f59190611d5a565b6112c4565b60405161040791906120df565b60405180910390f35b34801561041c57600080fd5b5061043760048036038101906104329190611d2d565b611312565b005b6104416115b6565b005b34801561044f57600080fd5b506104586116d7565b604051610465919061221a565b60405180910390f35b60016020528060005260406000206000915090505481565b6000600254905090565b6000600660008373ffffffffffffffffffffffffffffffffffffffff1673ffffffffffffffffffffffffffffffffffffffff168152602001908152602001600020805490509050919050565b61012c600254426104ed9190612399565b1161052d576040517f08c379a00000000000000000000000000000000000000000000000000000000081526004016105249061217a565b60405180910390fd5b6000610537610a4d565b90503373ffffffffffffffffffffffffffffffffffffffff16610558610a4d565b73ffffffffffffffffffffffffffffffffffffffff16146105ae576040517f08c379a00000000000000000000000000000000000000000000000000000000081526004016105a5906121fa565b60405180910390fd5b6000600460008373ffffffffffffffffffffffffffffffffffffffff1673ffffffffffffffffffffffffffffffffffffffff16815260200190815260200160002060010154905080471115610649573373ffffffffffffffffffffffffffffffffffffffff166108fc829081150290604051600060405180830381858888f19350505050158015610643573d6000803e3d6000fd5b50610691565b3373ffffffffffffffffffffffffffffffffffffffff166108fc479081150290604051600060405180830381858888f1935050505015801561068f573d6000803e3d6000fd5b505b61069a82611827565b6106a3826118ff565b61012c600260008282546106b79190612343565b925050819055505050565b6000600460003373ffffffffffffffffffffffffffffffffffffffff1673ffffffffffffffffffffffffffffffffffffffff1681526020019081526020016000206001015414610747576040517f08c379a000000000000000000000000000000000000000000000000000000000815260040161073e906121da565b60405180910390fd5b600060405180606001604052803373ffffffffffffffffffffffffffffffffffffffff16815260200184815260200183815250905080600460003373ffffffffffffffffffffffffffffffffffffffff1673ffffffffffffffffffffffffffffffffffffffff16815260200190815260200160002060008201518160000160006101000a81548173ffffffffffffffffffffffffffffffffffffffff021916908373ffffffffffffffffffffffffffffffffffffffff160217905550602082015181600101556040820151816002019080519060200190610829929190611b1a565b509050506003339080600181540180825580915050600190039060005260206000200160009091909190916101000a81548173ffffffffffffffffffffffffffffffffffffffff021916908373ffffffffffffffffffffffffffffffffffffffff160217905550506101a4600254426108a29190612399565b11156108c0576108b86108b3610a4d565b611827565b426002819055505b5050565b60056020528060005260406000206000915054906101000a900473ffffffffffffffffffffffffffffffffffffffff1681565b6000818154811061090757600080fd5b906000526020600020016000915054906101000a900473ffffffffffffffffffffffffffffffffffffffff1681565b6003818154811061094657600080fd5b906000526020600020016000915054906101000a900473ffffffffffffffffffffffffffffffffffffffff1681565b60025481565b60046020528060005260406000206000915090508060000160009054906101000a900473ffffffffffffffffffffffffffffffffffffffff16908060010154908060020180546109ca9061244b565b80601f01602080910402602001604051908101604052809291908181526020018280546109f69061244b565b8015610a435780601f10610a1857610100808354040283529160200191610a43565b820191906000526020600020905b815481529060010190602001808311610a2657829003601f168201915b5050505050905083565b60008060009050600080600090505b600380549050811015610bd25760006006600060038481548110610a8357610a82612555565b5b9060005260206000200160009054906101000a900473ffffffffffffffffffffffffffffffffffffffff1673ffffffffffffffffffffffffffffffffffffffff1673ffffffffffffffffffffffffffffffffffffffff168152602001908152602001600020805480602002602001604051908101604052809291908181526020018280548015610b6857602002820191906000526020600020905b8160009054906101000a900473ffffffffffffffffffffffffffffffffffffffff1673ffffffffffffffffffffffffffffffffffffffff1681526020019060010190808311610b1e575b505050505090508381511115610bbe578051935060038281548110610b9057610b8f612555565b5b9060005260206000200160009054906101000a900473ffffffffffffffffffffffffffffffffffffffff1692505b508080610bca906124ae565b915050610a5c565b50600073ffffffffffffffffffffffffffffffffffffffff168173ffffffffffffffffffffffffffffffffffffffff161415610c0d57600080fd5b809250505090565b60606000610c2161115f565b905060008167ffffffffffffffff811115610c3f57610c3e612584565b5b604051908082528060200260200182016040528015610c7857816020015b610c65611ba0565b815260200190600190039081610c5d5790505b5090506000805b83811015610f64576000805b8451811015610da2576004600060038581548110610cac57610cab612555565b5b9060005260206000200160009054906101000a900473ffffffffffffffffffffffffffffffffffffffff1673ffffffffffffffffffffffffffffffffffffffff1673ffffffffffffffffffffffffffffffffffffffff16815260200190815260200160002060000160009054906101000a900473ffffffffffffffffffffffffffffffffffffffff1673ffffffffffffffffffffffffffffffffffffffff16858281518110610d5e57610d5d612555565b5b60200260200101516000015173ffffffffffffffffffffffffffffffffffffffff161415610d8f5760019150610da2565b8080610d9a906124ae565b915050610c8b565b5080610f50576004600060038481548110610dc057610dbf612555565b5b9060005260206000200160009054906101000a900473ffffffffffffffffffffffffffffffffffffffff1673ffffffffffffffffffffffffffffffffffffffff1673ffffffffffffffffffffffffffffffffffffffff1681526020019081526020016000206040518060600160405290816000820160009054906101000a900473ffffffffffffffffffffffffffffffffffffffff1673ffffffffffffffffffffffffffffffffffffffff1673ffffffffffffffffffffffffffffffffffffffff16815260200160018201548152602001600282018054610ea09061244b565b80601f0160208091040260200160405190810160405280929190818152602001828054610ecc9061244b565b8015610f195780601f10610eee57610100808354040283529160200191610f19565b820191906000526020600020905b815481529060010190602001808311610efc57829003601f168201915b505050505081525050848481518110610f3557610f34612555565b5b6020026020010181905250600183610f4d9190612343565b92505b508080610f5c906124ae565b915050610c7f565b506000825167ffffffffffffffff811115610f8257610f81612584565b5b604051908082528060200260200182016040528015610fbb57816020015b610fa8611bd7565b815260200190600190039081610fa05790505b50905060005b835181101561115457838181518110610fdd57610fdc612555565b5b602002602001015160000151828281518110610ffc57610ffb612555565b5b60200260200101516000019073ffffffffffffffffffffffffffffffffffffffff16908173ffffffffffffffffffffffffffffffffffffffff168152505083818151811061104d5761104c612555565b5b60200260200101516020015182828151811061106c5761106b612555565b5b6020026020010151602001818152505083818151811061108f5761108e612555565b5b6020026020010151604001518282815181106110ae576110ad612555565b5b602002602001015160400181905250600660008583815181106110d4576110d3612555565b5b60200260200101516000015173ffffffffffffffffffffffffffffffffffffffff1673ffffffffffffffffffffffffffffffffffffffff1681526020019081526020016000208054905082828151811061113157611130612555565b5b60200260200101516060018181525050808061114c906124ae565b915050610fc1565b508094505050505090565b6000600380549050905090565b600060606000600460008573ffffffffffffffffffffffffffffffffffffffff1673ffffffffffffffffffffffffffffffffffffffff1681526020019081526020016000206040518060600160405290816000820160009054906101000a900473ffffffffffffffffffffffffffffffffffffffff1673ffffffffffffffffffffffffffffffffffffffff1673ffffffffffffffffffffffffffffffffffffffff1681526020016001820154815260200160028201805461122c9061244b565b80601f01602080910402602001604051908101604052809291908181526020018280546112589061244b565b80156112a55780601f1061127a576101008083540402835291602001916112a5565b820191906000526020600020905b81548152906001019060200180831161128857829003601f168201915b5050505050815250509050806020015181604001519250925050915091565b600660205281600052604060002081815481106112e057600080fd5b906000526020600020016000915091509054906101000a900473ffffffffffffffffffffffffffffffffffffffff1681565b6000600460008373ffffffffffffffffffffffffffffffffffffffff1673ffffffffffffffffffffffffffffffffffffffff168152602001908152602001600020600101541415611398576040517f08c379a000000000000000000000000000000000000000000000000000000000815260040161138f9061215a565b60405180910390fd5b600073ffffffffffffffffffffffffffffffffffffffff16600560003373ffffffffffffffffffffffffffffffffffffffff1673ffffffffffffffffffffffffffffffffffffffff16815260200190815260200160002060009054906101000a900473ffffffffffffffffffffffffffffffffffffffff1673ffffffffffffffffffffffffffffffffffffffff1614611466576040517f08c379a000000000000000000000000000000000000000000000000000000000815260040161145d906121ba565b60405180910390fd5b80600560003373ffffffffffffffffffffffffffffffffffffffff1673ffffffffffffffffffffffffffffffffffffffff16815260200190815260200160002060006101000a81548173ffffffffffffffffffffffffffffffffffffffff021916908373ffffffffffffffffffffffffffffffffffffffff160217905550600660008273ffffffffffffffffffffffffffffffffffffffff1673ffffffffffffffffffffffffffffffffffffffff168152602001908152602001600020339080600181540180825580915050600190039060005260206000200160009091909190916101000a81548173ffffffffffffffffffffffffffffffffffffffff021916908373ffffffffffffffffffffffffffffffffffffffff1602179055506101a4600254426115959190612399565b11156115b3576115ab6115a6610a4d565b611827565b426002819055505b50565b662386f26fc1000034116115ff576040517f08c379a00000000000000000000000000000000000000000000000000000000081526004016115f69061219a565b60405180910390fd5b6000339080600181540180825580915050600190039060005260206000200160009091909190916101000a81548173ffffffffffffffffffffffffffffffffffffffff021916908373ffffffffffffffffffffffffffffffffffffffff16021790555034600160003373ffffffffffffffffffffffffffffffffffffffff1673ffffffffffffffffffffffffffffffffffffffff168152602001908152602001600020819055506101a4600254426116b79190612399565b11156116d5576116cd6116c8610a4d565b611827565b426002819055505b565b6116df611ba0565b600460006116eb610a4d565b73ffffffffffffffffffffffffffffffffffffffff1673ffffffffffffffffffffffffffffffffffffffff1681526020019081526020016000206040518060600160405290816000820160009054906101000a900473ffffffffffffffffffffffffffffffffffffffff1673ffffffffffffffffffffffffffffffffffffffff1673ffffffffffffffffffffffffffffffffffffffff168152602001600182015481526020016002820180546117a09061244b565b80601f01602080910402602001604051908101604052809291908181526020018280546117cc9061244b565b80156118195780601f106117ee57610100808354040283529160200191611819565b820191906000526020600020905b8154815290600101906020018083116117fc57829003601f168201915b505050505081525050905090565b600460008273ffffffffffffffffffffffffffffffffffffffff1673ffffffffffffffffffffffffffffffffffffffff168152602001908152602001600020600080820160006101000a81549073ffffffffffffffffffffffffffffffffffffffff021916905560018201600090556002820160006118a69190611c15565b5050600660008273ffffffffffffffffffffffffffffffffffffffff1673ffffffffffffffffffffffffffffffffffffffff16815260200190815260200160002060006118f39190611c55565b6118fc816118ff565b50565b6000600660008373ffffffffffffffffffffffffffffffffffffffff1673ffffffffffffffffffffffffffffffffffffffff1681526020019081526020016000208054806020026020016040519081016040528092919081815260200182805480156119c057602002820191906000526020600020905b8160009054906101000a900473ffffffffffffffffffffffffffffffffffffffff1673ffffffffffffffffffffffffffffffffffffffff1681526020019060010190808311611976575b50505050509050600081511115611acb5760005b8151811015611ac957600160008383815181106119f4576119f3612555565b5b602002602001015173ffffffffffffffffffffffffffffffffffffffff1673ffffffffffffffffffffffffffffffffffffffff1681526020019081526020016000206000905560056000838381518110611a5157611a50612555565b5b602002602001015173ffffffffffffffffffffffffffffffffffffffff1673ffffffffffffffffffffffffffffffffffffffff16815260200190815260200160002060006101000a81549073ffffffffffffffffffffffffffffffffffffffff02191690558080611ac1906124ae565b9150506119d4565b505b600660008373ffffffffffffffffffffffffffffffffffffffff1673ffffffffffffffffffffffffffffffffffffffff1681526020019081526020016000206000611b169190611c55565b5050565b828054611b269061244b565b90600052602060002090601f016020900481019282611b485760008555611b8f565b82601f10611b6157805160ff1916838001178555611b8f565b82800160010185558215611b8f579182015b82811115611b8e578251825591602001919060010190611b73565b5b509050611b9c9190611c76565b5090565b6040518060600160405280600073ffffffffffffffffffffffffffffffffffffffff16815260200160008152602001606081525090565b6040518060800160405280600073ffffffffffffffffffffffffffffffffffffffff1681526020016000815260200160608152602001600081525090565b508054611c219061244b565b6000825580601f10611c335750611c52565b601f016020900490600052602060002090810190611c519190611c76565b5b50565b5080546000825590600052602060002090810190611c739190611c76565b50565b5b80821115611c8f576000816000905550600101611c77565b5090565b6000611ca6611ca1846122ac565b612287565b905082815260208101848484011115611cc257611cc16125b8565b5b611ccd848285612409565b509392505050565b600081359050611ce481612740565b92915050565b600082601f830112611cff57611cfe6125b3565b5b8135611d0f848260208601611c93565b91505092915050565b600081359050611d2781612757565b92915050565b600060208284031215611d4357611d426125c2565b5b6000611d5184828501611cd5565b91505092915050565b60008060408385031215611d7157611d706125c2565b5b6000611d7f85828601611cd5565b9250506020611d9085828601611d18565b9150509250929050565b600060208284031215611db057611daf6125c2565b5b6000611dbe84828501611d18565b91505092915050565b60008060408385031215611dde57611ddd6125c2565b5b6000611dec85828601611d18565b925050602083013567ffffffffffffffff811115611e0d57611e0c6125bd565b5b611e1985828601611cea565b9150509250929050565b6000611e2f838361205e565b905092915050565b611e40816123cd565b82525050565b611e4f816123cd565b82525050565b6000611e60826122ed565b611e6a8185612310565b935083602082028501611e7c856122dd565b8060005b85811015611eb85784840389528151611e998582611e23565b9450611ea483612303565b925060208a01995050600181019050611e80565b50829750879550505050505092915050565b6000611ed5826122f8565b611edf8185612321565b9350611eef818560208601612418565b611ef8816125c7565b840191505092915050565b6000611f0e826122f8565b611f188185612332565b9350611f28818560208601612418565b611f31816125c7565b840191505092915050565b6000611f49601683612332565b9150611f54826125d8565b602082019050919050565b6000611f6c601c83612332565b9150611f7782612601565b602082019050919050565b6000611f8f602683612332565b9150611f9a8261262a565b604082019050919050565b6000611fb2601683612332565b9150611fbd82612679565b602082019050919050565b6000611fd5602583612332565b9150611fe0826126a2565b604082019050919050565b6000611ff8602c83612332565b9150612003826126f1565b604082019050919050565b60006060830160008301516120266000860182611e37565b50602083015161203960208601826120c1565b50604083015184820360408601526120518282611eca565b9150508091505092915050565b60006080830160008301516120766000860182611e37565b50602083015161208960208601826120c1565b50604083015184820360408601526120a18282611eca565b91505060608301516120b660608601826120c1565b508091505092915050565b6120ca816123ff565b82525050565b6120d9816123ff565b82525050565b60006020820190506120f46000830184611e46565b92915050565b600060608201905061210f6000830186611e46565b61211c60208301856120d0565b818103604083015261212e8184611f03565b9050949350505050565b600060208201905081810360008301526121528184611e55565b905092915050565b6000602082019050818103600083015261217381611f3c565b9050919050565b6000602082019050818103600083015261219381611f5f565b9050919050565b600060208201905081810360008301526121b381611f82565b9050919050565b600060208201905081810360008301526121d381611fa5565b9050919050565b600060208201905081810360008301526121f381611fc8565b9050919050565b6000602082019050818103600083015261221381611feb565b9050919050565b60006020820190508181036000830152612234818461200e565b905092915050565b600060208201905061225160008301846120d0565b92915050565b600060408201905061226c60008301856120d0565b818103602083015261227e8184611f03565b90509392505050565b60006122916122a2565b905061229d828261247d565b919050565b6000604051905090565b600067ffffffffffffffff8211156122c7576122c6612584565b5b6122d0826125c7565b9050602081019050919050565b6000819050602082019050919050565b600081519050919050565b600081519050919050565b6000602082019050919050565b600082825260208201905092915050565b600082825260208201905092915050565b600082825260208201905092915050565b600061234e826123ff565b9150612359836123ff565b9250827fffffffffffffffffffffffffffffffffffffffffffffffffffffffffffffffff0382111561238e5761238d6124f7565b5b828201905092915050565b60006123a4826123ff565b91506123af836123ff565b9250828210156123c2576123c16124f7565b5b828203905092915050565b60006123d8826123df565b9050919050565b600073ffffffffffffffffffffffffffffffffffffffff82169050919050565b6000819050919050565b82818337600083830152505050565b60005b8381101561243657808201518184015260208101905061241b565b83811115612445576000848401525b50505050565b6000600282049050600182168061246357607f821691505b6020821081141561247757612476612526565b5b50919050565b612486826125c7565b810181811067ffffffffffffffff821117156124a5576124a4612584565b5b80604052505050565b60006124b9826123ff565b91507fffffffffffffffffffffffffffffffffffffffffffffffffffffffffffffffff8214156124ec576124eb6124f7565b5b600182019050919050565b7f4e487b7100000000000000000000000000000000000000000000000000000000600052601160045260246000fd5b7f4e487b7100000000000000000000000000000000000000000000000000000000600052602260045260246000fd5b7f4e487b7100000000000000000000000000000000000000000000000000000000600052603260045260246000fd5b7f4e487b7100000000000000000000000000000000000000000000000000000000600052604160045260246000fd5b600080fd5b600080fd5b600080fd5b600080fd5b6000601f19601f8301169050919050565b7f7265717565737420646f6573206e6f7420657869737400000000000000000000600082015250565b7f74686520726f756e6420686173206e6f7420656e646564207965742100000000600082015250565b7f796f75206861766520746f20646f6e617465206d6f7265207468616e20302e3060008201527f3120455448210000000000000000000000000000000000000000000000000000602082015250565b7f796f75206861766520616c726561647920766f74656400000000000000000000600082015250565b7f596f7520616c726561647920686176652061207375626d69747465642072657160008201527f7565737421000000000000000000000000000000000000000000000000000000602082015250565b7f596f7520646f206e6f74206861766520746865206d6f737420766f746573207460008201527f68697320726f756e64203a280000000000000000000000000000000000000000602082015250565b612749816123cd565b811461275457600080fd5b50565b612760816123ff565b811461276b57600080fd5b5056fea2646970667358221220eb83f1bff5817f1f7ab2e867abff7134fdede459b7e7d0dfbef408ef9c8e317a64736f6c63430008070033",
  "immutableReferences": {},
  "source": "// SPDX-License-Identifier: MIT\r\npragma solidity 0.8.7;\r\n\r\ncontract Charity {\r\n    struct Request {\r\n        address requester;\r\n        uint256 amount_requested;\r\n        string proof;\r\n    }\r\n\r\n    struct ReturnedRequestData {\r\n        address requester;\r\n        uint256 amount_requested;\r\n        string proof;\r\n        uint256 votes;\r\n    }\r\n\r\n    address[] public donors; // entire history of donators\r\n    mapping(address => uint256) public donatedAmount; // donor to donated amount mapping\r\n    uint256 public lastVoteEndTime;\r\n    address[] public requesters; // entire history of requestors\r\n    mapping(address => Request) public requests; // requestor to request mapping\r\n    mapping(address => address) public donorVote; // donor to request mapping\r\n    mapping(address => address[]) public requestorDonors; // requestor to donors mapping\r\n\r\n    constructor() {\r\n        lastVoteEndTime = block.timestamp;\r\n    }\r\n\r\n    function donate() external payable checkForStaleRequest {\r\n        require(\r\n            msg.value > 0.01 ether,\r\n            \"you have to donate more than 0.01 ETH!\"\r\n        );\r\n        donors.push(msg.sender);\r\n        donatedAmount[msg.sender] = msg.value;\r\n    }\r\n\r\n    modifier checkForStaleRequest() {\r\n        _;\r\n        if (block.timestamp - lastVoteEndTime > 7 minutes) {\r\n            purgeRequest(getWinningRequestAddress());\r\n            lastVoteEndTime = block.timestamp;\r\n        }\r\n    }\r\n\r\n    function getNumberOfRequests() public view returns (uint256) {\r\n        return requesters.length;\r\n    }\r\n\r\n    function purgeRequest(address requester) private {\r\n        delete requests[requester];\r\n        delete requestorDonors[requester];\r\n        purgeDonors(requester);\r\n    }\r\n\r\n    function purgeDonors(address requester) private {\r\n        address[] memory currentDonors = requestorDonors[requester];\r\n        if (currentDonors.length > 0) {\r\n            for (uint256 i = 0; i < currentDonors.length; i++) {\r\n                delete donatedAmount[currentDonors[i]];\r\n                delete donorVote[currentDonors[i]];\r\n            }\r\n        }\r\n        delete requestorDonors[requester];\r\n    }\r\n\r\n    function new_request(uint256 requested_amount, string memory _proof)\r\n        external\r\n        checkForStaleRequest\r\n    {\r\n        require(\r\n            requests[msg.sender].amount_requested == 0,\r\n            \"You already have a submitted request!\"\r\n        ); // the person should not have put up a request before\r\n        Request memory request = Request({\r\n            requester: msg.sender,\r\n            amount_requested: requested_amount,\r\n            proof: _proof\r\n        });\r\n        requests[msg.sender] = request;\r\n        requesters.push(msg.sender);\r\n        // if (!requestMapping[msg.sender]) {\r\n        //     requestMapping[msg.sender] = request;\r\n        //     requesters.push(msg.sender);\r\n        // }\r\n    }\r\n\r\n    function voteForRequest(address requester_addr)\r\n        external\r\n        checkForStaleRequest\r\n    {\r\n        require(\r\n            requests[requester_addr].amount_requested != 0,\r\n            \"request does not exist\"\r\n        ); // ensure that request for the corresponding requestor exists\r\n        require(donorVote[msg.sender] == address(0), \"you have already voted\"); // check that donor has not voted for anyone yet\r\n        donorVote[msg.sender] = requester_addr; // add voting for donor\r\n        requestorDonors[requester_addr].push(msg.sender); // add donor to the requestors map\r\n    }\r\n\r\n    function getRequestVoteCount(address requester)\r\n        public\r\n        view\r\n        returns (uint256)\r\n    {\r\n        return requestorDonors[requester].length;\r\n    }\r\n\r\n    function getLastVoteEndTime() public view returns (uint256) {\r\n        return lastVoteEndTime;\r\n    }\r\n\r\n    // Todo remove duplicate requestors fom the map i.e keep track of repeated reqs and dont show. Had to be unique\r\n    function getRequests() public view returns (ReturnedRequestData[] memory) {\r\n        uint256 n = getNumberOfRequests();\r\n        Request[] memory reqs = new Request[](n);\r\n        uint256 x = 0;\r\n        for (uint256 i = 0; i < n; i++) {\r\n            bool isFound = false;\r\n            for (uint256 j = 0; j < reqs.length; j++) {\r\n                if (reqs[j].requester == requests[requesters[i]].requester) {\r\n                    isFound = true;\r\n                    break;\r\n                }\r\n            }\r\n            if (!isFound) {\r\n                reqs[x] = requests[requesters[i]];\r\n                x += 1;\r\n            }\r\n        }\r\n\r\n        ReturnedRequestData[] memory ret = new ReturnedRequestData[](\r\n            reqs.length\r\n        );\r\n        for (uint256 i = 0; i < reqs.length; i++) {\r\n            ret[i].requester = reqs[i].requester;\r\n            ret[i].amount_requested = reqs[i].amount_requested;\r\n            ret[i].proof = reqs[i].proof;\r\n            ret[i].votes = requestorDonors[reqs[i].requester].length;\r\n        }\r\n\r\n        return ret;\r\n    }\r\n\r\n    function getRequestDetails(address requester)\r\n        public\r\n        view\r\n        returns (uint256, string memory)\r\n    {\r\n        Request memory request = requests[requester];\r\n        return (request.amount_requested, request.proof);\r\n    }\r\n\r\n    function getWinningRequest() public view returns (Request memory) {\r\n        return requests[getWinningRequestAddress()];\r\n    }\r\n\r\n    function getWinningRequestAddress() public view returns (address) {\r\n        uint256 highestVotes = 0;\r\n        address winningRequestAddr;\r\n        for (uint256 i = 0; i < requesters.length; i++) {\r\n            address[] memory requestDonors = requestorDonors[requesters[i]];\r\n            if (requestDonors.length > highestVotes) {\r\n                highestVotes = requestDonors.length;\r\n                winningRequestAddr = requesters[i];\r\n            }\r\n        }\r\n        require(winningRequestAddr != address(0));\r\n        return winningRequestAddr;\r\n    }\r\n\r\n    function withdraw() external {\r\n        require(\r\n            block.timestamp - lastVoteEndTime > 5 minutes,\r\n            \"the round has not ended yet!\"\r\n        );\r\n        address winningAddress = getWinningRequestAddress();\r\n        require(\r\n            getWinningRequestAddress() == msg.sender,\r\n            \"You do not have the most votes this round :(\"\r\n        );\r\n        uint256 requestedAmount = requests[winningAddress].amount_requested;\r\n        if (address(this).balance > requestedAmount) {\r\n            payable(msg.sender).transfer(requestedAmount);\r\n        } else {\r\n            payable(msg.sender).transfer(address(this).balance);\r\n        }\r\n        purgeRequest(winningAddress);\r\n        purgeDonors(winningAddress);\r\n        lastVoteEndTime += 5 minutes;\r\n    }\r\n}\r\n",
  "sourcePath": "G:/EE4032/contracts/Charity.sol",
  "compiler": {
    "name": "solc",
    "version": "0.8.7+commit.e28d00a7.Emscripten.clang"
  },
  "schemaVersion": "3.4.1",
  "updatedAt": "2021-09-11T03:20:16.250Z",
  "networkType": "ethereum",
  "devdoc": {
    "kind": "dev",
    "methods": {},
    "version": 1
  },
  "userdoc": {
    "kind": "user",
    "methods": {},
    "version": 1
  }
}